:100000000C9434000C9451000C9451000C94510049
:100010000C9451000C9451000C9451000C9451001C
:100020000C9451000C9451000C9451000C9451000C
:100030000C9451000C9451000C9451000C945100FC
:100040000C9451000C9451000C9451000C945100EC
:100050000C9451000C9451000C9451000C945100DC
:100060000C9451000C94510011241FBECFEFD8E026
:10007000DEBFCDBF11E0A0E0B1E0E6EEF4E002C0EB
:1000800005900D92AA30B107D9F711E0AAE0B1E0CE
:1000900001C01D92AD30B107E1F70E940A020C9435
:1000A00071020C940000389A399A3A9A3B9A3C981B
:1000B0000895882311F0409A089540980895882360
:1000C00011F0419A089541980895882311F0429AB9
:1000D000089542980895882311F0439A089543980B
:1000E000089586B1807108950E9453004098419A06
:1000F000089580910C010895429840E027E030E097
:10010000682F70E0CB01022E02C0959587950A9466
:10011000E2F780FF02C0439A01C04398429A440F1D
:10012000349941604298215030408FEF2F3F38077B
:1001300049F7842F089541988FEF0E947C00419ADF
:1001400008950E949B0085FF02C080E0089584FD11
:1001500002C08FEF089581E008950E949B0090E017
:10016000807309F491E0892F0895419880E60E94F8
:100170007C0080E00E947C00419A0895DF92EF921B
:10018000FF920F931F93CF93DF937B01D42E8C01AB
:10019000C0E0D0E00AC0F80181918F010E947C008C
:1001A000F701EC0FFD1F80832196CD15A0F3DF91A1
:1001B000CF911F910F91FF90EF90DF9008950F93D3
:1001C0001F93CF93DF93062FEC0110E004C08991B9
:1001D0000E947C001F5F1017D0F3DF91CF911F9119
:1001E0000F9108951F93162F41988F7180620E947E
:1001F0007C00812F0E947C00419A1F9108954098B5
:1002000080E068E00E94F200089587E060E70E94C5
:10021000F20080E06AE00E94F20008950F931F93BD
:100220008C0140980E940501419881EE0E947C005B
:10023000419A419880EA0E947C00C80160910C01BB
:100240000E94DF00419A409A1F910F9108954198B2
:1002500082EE0E947C00419A87E060E70E94F200F3
:10026000409880E06BE00E94F200409A08950F935E
:100270001F938C01419881E60E947C00C801B8015F
:1002800040910C010E94BE00419A87E060E40E9408
:10029000F2001F910F910895982F60930C0185E053
:1002A000692F0E94F20081E160E00E94F20082E189
:1002B00060910C010E94F20083E160E00E94F20074
:1002C00084E160E00E94F20085E160E00E94F200BB
:1002D00086E160E00E94F20086E066E00E94F200A3
:1002E00080E068E00E94F20081E063E00E94F2009A
:1002F00082E063E00E94F20084E06FE40E94F2007A
:100300008CE160E00E94F2000E9427010895FF92B4
:100310000F931F938B01F42E41988F710E947C00E4
:10032000C801B8014F2D0E94BE00419A1F910F9144
:10033000FF900895DF93CF930F92CDB7DEB788E09B
:10034000BE016F5F7F4F41E00E94870189818F70FE
:100350000F90CF91DF910895DF93CF930F92CDB798
:10036000DEB787E1BE016F5F7F4F41E00E948701EA
:10037000898181700F90CF91DF9108950E949B0039
:1003800086FD05C00E94AC0190E0882309F491E04D
:10039000892F0895FF920F931F938B01F42E41989C
:1003A0008F7180620E947C00C8016F2D0E94DF0067
:1003B000419A1F910F91FF9008950F931F938C0105
:1003C0008AE0B80145E00E94CA0180E1B80145E039
:1003D0000E94CA011F910F910895BC0140988BE0C3
:1003E00045E00E94CA01409A0895299A84EF91E05D
:1003F00028EC30E0F9013197F1F70197D9F7299806
:1004000084EF91E028EC30E0F9013197F1F70197A2
:10041000D9F708958F929F92AF92BF92CF92DF92B9
:10042000EF92FF921F93DF93CF93CDB7DEB72C9758
:100430000FB6F894DEBF0FBECDBF219A0E947400A4
:1004400082E064E00E944C0185E091E00E94DD01C1
:1004500080E091E00E94ED0134E139831A8291E05D
:100460009B832FEF2C839D8383E18E839F8328873B
:100470008AE089873A879B872C8710E029E0822EC3
:10048000912C8C0E9D1E95E0A92EB12CAC0EBD1E9C
:100490006E010894C11CD11C88ECE82EF12C1F5F62
:1004A0001A3014F4C60109C0143114F4C50105C092
:1004B0001E3114F010E003C0C4010E940E010E941E
:1004C000AD008823E1F70E94A10080930B010E94F8
:1004D000F50188E893E1F7013197F1F70197D9F732
:0604E000DECFF894FFCF0F
:0A04E600E7E7E7E7E7D7D7D7D7D756
:00000001FF
