:100000000C9434000C9451000C9451000C94510049
:100010000C9451000C9451000C9451000C9451001C
:100020000C9451000C9451000C9451000C9451000C
:100030000C9451000C9451000C9451000C945100FC
:100040000C9451000C9451000C94E5040C9411058F
:100050000C9451000C9451000C9451000C945100DC
:100060000C9451000C94510011241FBECFEFD8E026
:10007000DEBFCDBF12E0A0E0B1E0EAE0F3E202C0F3
:1000800005900D92AA33B107D9F712E0AAE3B2E0C6
:1000900001C01D92A43AB107E1F70E94B7040C9485
:1000A00083110C940000AF92BF92CF92DF92EF9237
:1000B000FF920F931F935B016C01E12C8AECF82EE9
:1000C0008AE9082F8BE3182FB501C601A801970113
:1000D0000E940B11822F805D0E941508B501C60198
:1000E000A80197010E940B115B016C01C801B701C7
:1000F0002AE030E040E050E00E940B11C901DA0133
:100100007C018D0184E6E816F1040105110591F0EA
:1001100080EAE81686E8F80681E0080780E018071C
:1001200049F080E0E81681EEF80685EF080785E0E3
:10013000180721F48CE20E941508C6CFE114F104DF
:100140000105110509F61F910F91FF90EF90DF90C7
:10015000CF90BF90AF90089580E060E00E940D08BE
:1001600080E091E00E9444086091940270919502B1
:1001700080919602909197020E94530080E061E086
:100180000E940D0883E091E00E9444086091900273
:100190007091910280919202909193020E9453007B
:1001A0000895EF92FF920F931F93CF93DF937C01FB
:1001B000C0E1D7E200E010E0C701BE010E94F710E5
:1001C000862F805D0E941508C701BE010E94F710AE
:1001D0007C01CE016AE070E00E94F710EB010F5F36
:1001E0001F4F0530110541F7DF91CF911F910F91FE
:1001F000FF90EF9008958091980290919902A091BC
:100200009A02B0919B020097A105B10581F48091FB
:10021000940290919502A0919602B09197028093DA
:10022000980290939902A0939A02B0939B0280E067
:1002300060E00E940D082091940230919502409157
:100240009602509197028091980290919902A09104
:100250009A02B0919B02281739074A075B07A8F05A
:1002600086E091E00E94440880919402909195026A
:10027000A0919602B0919702209198023091990234
:1002800040919A0250919B0214C08CE091E00E9430
:1002900044088091980290919902A0919A02B0919D
:1002A0009B022091940230919502409196025091C8
:1002B0009702821B930B0E94D10008950F931F9306
:1002C000CF93DF9382E191E00E944408C1E0D0E047
:1002D00008EC10E00E94B2078AE00E94150883E44F
:1002E0000E9415089E01205D822F0E9415088DE353
:1002F0000E941508FE01EE0FFF1FE058FD4F8081A0
:1003000091810E94D10080ED97E0F8013197F1F7DB
:100310000197D9F72196C730D105E1F68CE00E940C
:10032000BA07DF91CF911F910F910895CF92DF927D
:10033000EF92FF920F931F93CF93DF937C016B019A
:10034000C4E6D0E000E010E0C701BE010E94F71053
:10035000605D603341F4C114D10429F4CA30D10581
:1003600010F060E203C021E0C22ED12C862F0E9443
:100370001508CE016AE070E00E94F7109B010F5F44
:100380001F4F0330110539F0C701BE010E94F7105D
:100390007C01E901D9CFDF91CF911F910F91FF909F
:1003A000EF90DF90CF900895CF93DF93EC019B0106
:1003B0006AE070E00E94F710605D603319F4232B4F
:1003C00009F460E2862F0E941508CE016AE070E011
:1003D0000E94F710805D0E941508DF91CF9108956B
:1003E0002F923F924F925F926F927F928F929F9245
:1003F000AF92BF92CF92DF92EF92FF920F931F9333
:10040000DF93CF9300D000D000D0CDB7DEB72091DE
:1004100094023091950240919602509197028091FA
:10042000980290919902A0919A02B0919B0228178C
:1004300039074A075B07E0F080919402909195029A
:10044000A0919602B0919702209198023091990262
:1004500040919A0250919B02821B930BA40BB50B07
:100460004C015D01CC24DD2476012BE229831BC0E5
:100470008091980290919902A0919A02B0919B026A
:1004800020919402309195024091960250919702EA
:10049000821B930BA40BB50B4C015D01CC24DD2416
:1004A00076013DE239839401A501B601C70102E05E
:1004B0000E94030A122F732E642E452E262E7A8355
:1004C0008B839C8305E00E94030AA32FB42F052F82
:1004D000562E372E8D839E83922F911BF1E0291784
:1004E00008F0F0E03A2F3719E1E0A31708F0E0E058
:1004F000832F8F1BF82F21E0381708F020E0E22B24
:100500004B2F461931E0B41708F030E0A42FAE1B92
:10051000EA2F21E04A1708F020E0322B502F54191F
:1005200041E0051708F040E0652E631A21E05615FA
:1005300008F020E0422B652D621931E0561608F0D4
:1005400030E0162F141B21E0611708F020E0322B59
:10055000732DBA817B1B41E0371608F040E0072F6E
:10056000031B21E0701708F020E0422B8D812B81C6
:10057000821B21E03D81381708F020E0782E741AA4
:1005800031E0871508F030E0232B5E808C81581A0B
:10059000521A292F280D31E0291708F030E08F2F4B
:1005A000890D41E08F1708F040E0380F51E038170F
:1005B00008F050E0452B8E2F8A0D51E08E1708F081
:1005C00050E0480F61E0481708F060E0562B862D98
:1005D0008B0D61E0861508F060E0580F71E0581748
:1005E00008F070E0672B812F8C0D71E0811708F007
:1005F00070E0680FE1E0681708F0E0E07E2BE02F84
:10060000ED0D81E0E01708F080E07E0FF1E07E174D
:1006100008F0F0E08F2BE72DEE0D91E0E71508F0E4
:1006200090E08E0FF1E08E1708F0F0E09F2B5F0C4A
:10063000950D03E00E94030A19EDA12EBAEDBB2E21
:10064000A4E0CA2EDD24EE24FF2400E010E00E9486
:10065000820A922E832EF8EEAF2EE3E0BE2ECC243B
:100660000E94820A790188EE93E0DC01EA9EC001D3
:10067000EB9E900DFA9E900D11249C01E92DE81B34
:1006800001E09E1608F000E0882D831B982F901B38
:100690000E2F192F80E060E00E940D0889810E94D2
:1006A000150889810E94150880E20E941508C7017B
:1006B00061E070E00E94D4018EE20E941508C8013A
:1006C00061E070E00E94960182E291E00E9444089D
:1006D00089810E94150889810E9415088AE00E947C
:1006E0001508C80134E0880F991F3A95E1F768EEC4
:1006F00073E00E94F7105B01CC24DD24EE24FF247C
:100700008701AE14BF04C006D10610F08FEF01C000
:1007100080E20E9415080894E11CF11C011D111DC6
:10072000B0E1EB16F1040105110559F726960FB655
:10073000F894DEBF0FBECDBFCF91DF911F910F9117
:10074000FF90EF90DF90CF90BF90AF909F908F90F1
:100750007F906F905F904F903F902F9008950F93F0
:100760001F93DF93CF9300D00F92CDB7DEB788E40D
:1007700089838EEE8E010F5F1F4FB80141E050E07C
:100780000E94250980E29EE40197F1F719828EEE1E
:10079000B80141E050E00E9425098FEEB80143E026
:1007A00050E00E944D09109294021092950210920E
:1007B0009602109297028091940290919502A091D6
:1007C0009602B09197022981820F911DA11DB11D42
:1007D0008093940290939502A0939602B09397020F
:1007E0008091940290919502A0919602B091970207
:1007F000BA2FA92F982F882780939402909395025F
:10080000A0939602B09397028091940290919502E2
:10081000A0919602B09197022A81820F911DA11D8D
:10082000B11D8093940290939502A0939602B09389
:1008300097028091940290919502A0919602B091B6
:100840009702BA2FA92F982F88278093940290930C
:100850009502A0939602B093970280919402909192
:100860009502A0919602B09197022B81820F911D63
:10087000A11DB11D8093940290939502A0939602BE
:10088000B09397028091980290919902A0919A0258
:10089000B0919B020097A105B10581F4809194026B
:1008A00090919502A0919602B09197028093980240
:1008B00090939902A0939A02B0939B020F900F908D
:1008C0000F90CF91DF911F910F9108951092980290
:1008D0001092990210929A0210929B020E94AF030A
:1008E0000895CF92DF92FF920F931F93DF93CF93E0
:1008F00000D0CDB7DEB700E010E050EAF52E6E0173
:100900000894C11CD11CF9828EEEB60141E050E082
:100910000E9425098FEEB60142E050E00E944D0989
:10092000898190E0F801EE0FFF1FE058FD4F9183A1
:10093000808380819181982F882791838083808113
:1009400091812A81820F911D918380830F5F1F4FB8
:1009500082E0F80E80EBF816B1F60F900F90CF9171
:10096000DF911F910F91FF90DF90CF900895CF936B
:10097000DF938CE00E94BA0781E00E9499060E94F2
:10098000B2070E9471040E945E010E9466042098D2
:10099000289AC8ECD0E00E94AF030E94F001189999
:1009A00011C080E060E00E940D0888E291E00E94A2
:1009B000440888E893E1FE013197F1F70197D9F7F0
:1009C0000E946604189BFECFE6CF1F920F920FB6CF
:1009D0000F9211242F938F939F93EF93FF939091F6
:1009E000C0002091C600E0917C02EF5FEF71809122
:1009F0007D02E81711F482E008C0892F8871E09326
:100A00007C02F0E0E65AFD4F208380937E02FF9146
:100A1000EF919F918F912F910F900FBE0F901F908C
:100A200018951F920F920FB60F9211248F939F93D8
:100A3000EF93FF9390917A0280917B02981769F06F
:100A4000E0917B02EF5FEF71E0937B02F0E0E65C08
:100A5000FD4F80818093C60005C08091C1008F7DCD
:100A60008093C100FF91EF919F918F910F900FBEE6
:100A70000F901F9018959C0110927A0210927B02A1
:100A800010927C0210927D0297FF04C082E0809356
:100A9000C0003F773093C5002093C40088E980935D
:100AA000C10086E08093C200089590917C028091FD
:100AB0007D02981719F420E031E012C0E0917D0228
:100AC000EF5FEF71E0937D02F0E0E65AFD4F308179
:100AD00020917E02922F80E0AC01430F511D9A01BC
:100AE000C9010895282F90917A029F5F9F7180918C
:100AF0007B029817E1F3E92FF0E0E65CFD4F2083DD
:100B000090937A028091C10080628093C100089521
:100B1000CF93DF93EC0103C021960E947205888178
:100B20008823D1F7DF91CF910895CF93DF93EC0124
:100B300002C00E947205FE01219684918823C9F7A4
:100B4000DF91CF910895883010F08FEF0895E82F4E
:100B5000F0E0E456FD4F80810895883088F46830D5
:100B600078F4E82FF0E0E456FD4F8081992787FD67
:100B7000909502C0959587956A95E2F781700895E2
:100B80008FEF08951F93883010F01FEF0DC090E095
:100B90008796880F991F81600E9456080E94CB0893
:100BA000182F10950E94A708812F1F9108951F9359
:100BB000162F883080F4683070F40E94C2058F3F91
:100BC00059F0992787FD909502C0959587951A95BC
:100BD000E2F7817001C08FEF1F9108951F93282FB6
:100BE000883068F5683058F5A82FB0E0FD01E4566C
:100BF000FD4FE081442351F081E090E002C0880F76
:100C0000991F6A95E2F71E2F182B0AC081E090E029
:100C100002C0880F991F6A95E2F7182F10951E23BE
:100C2000A456BD4F1C93295D822F880F0E94560841
:100C3000812F0E94AF080E94A70880E001C08FEFBB
:100C40001F91089540E00E94EE05089541E00E9442
:100C5000EE0508951F93782F842F783008F03FC059
:100C6000A42FB0E0462F50E04A1B5B0B9FEF4F3F95
:100C70005907ACF1683098F5662389F1882379F13A
:100C8000E72FF0E0E456FD4F60814F5F5F4F332761
:100C900027FD3095042E02C0220F331F0A94E2F77D
:100CA00081E090E002C0880F991FAA95E2F70197B2
:100CB00002C0880F991F4A95E2F7182F1095162346
:100CC0008223182B1083795D872F880F0E94560886
:100CD000812F0E94AF080E94A70880E001C08FEF1B
:100CE0001F9108951F93162F883010F08FEF0FC0BB
:100CF000E82FF0E0E456FD4F6083895D880F0E9485
:100D00005608812F0E94AF080E94A70880E01F911B
:100D100008950E9450088AE18A95F1F780E090E0FA
:100D2000FC01E456FD4F1082019688309105C1F711
:100D30000895882321F080917F028F7703C08091EE
:100D40007F02806880937F0260917F0280E00E9432
:100D50007206089580E064E00E94260600C080E0EC
:100D600064E00E94220608951F93182F662321F045
:100D700080917F02806403C080917F028F7B80938B
:100D80007F0280917F028F7D80937F0260917F023E
:100D900080E00E94720680917F02877F80937F02AD
:100DA00080917F028B7F80937F0280917F028D7F75
:100DB00080937F0280917F028E7F80937F0217FF56
:100DC00005C080917F02886080937F0216FF05C076
:100DD00080917F02846080937F0215FF05C080911F
:100DE0007F02826080937F0214FF05C080917F02A2
:100DF000816080937F0260917F0280E00E94720692
:100E00000E94AA0680917F02877F80937F02809153
:100E10007F028B7F80937F0280917F028D7F809302
:100E20007F0280917F028E7F80937F0213FF05C037
:100E300080917F02886080937F0212FF05C08091BD
:100E40007F02846080937F0211FF05C080917F0242
:100E5000826080937F0210FF05C080917F028160D5
:100E600080937F0260917F0280E00E9472060E9460
:100E7000AA0680917F02816080937F0280917F0229
:100E8000826080937F0280917F02846080937F02E2
:100E900080917F02886080937F0260917F0280E072
:100EA0000E9472061F9108951F93882321F080915C
:100EB0007F02806403C080917F028F7B80937F02DA
:100EC00080917F02806280937F0260917F0280E048
:100ED0000E94720680E064E00E94260600C080E066
:100EE00060E00E94AD05182F80E064E00E942206B9
:100EF00000C080E064E00E94260600C080E060E060
:100F00000E94AD051295107F8F70182B80E064E071
:100F10000E942206812F1F91089580E00E945407AD
:100F200087FDFBCF84E090E00197F1F780E00E941D
:100F3000540708950E948D0790E008951F93182F7D
:100F40000E948D07812F61E00E94B4061F910895D1
:100F50001F93182F0E948D07812F60E00E94B40616
:100F60001F91089582E00E94A807089581E00E94E1
:100F7000A8070895FF920F931F93F82E0E948906E9
:100F800010927F0260917F0280E00E94720680E0F2
:100F90009DE70197F1F780917F02826080937F0245
:100FA00080917F02816080937F0260917F0280E068
:100FB0000E9472060E94AA0680E097E20197F1F76C
:100FC0000E94AA0600E810E0C8010197F1F70E940C
:100FD000AA06C8010197F1F780917F028E7F809366
:100FE0007F0260917F0280E00E9472060E94AA0642
:100FF000C8010197F1F788E20E94A80788E00E94E3
:10100000A8070E94B60786E00E94A8078F2D0E94BD
:10101000A8071F910F91FF900895662311F480583F
:1010200001C080540E94A80708951F93182F0E94A2
:101030008D071A3049F4803410F080E001C080E45C
:1010400080580E94A80710C0803111F480EC03C0C2
:10105000803521F480E860E00E94B4060E948D078C
:10106000812F61E00E94B4061F910895CF93DF9312
:10107000EC0102C00E941508FE012196849188238C
:10108000C9F7DF91CF910895CF93DF93EC0102C0B0
:101090000E94150889918823D9F7DF91CF9108958F
:1010A0001092B9008CE08093B8000895982F84EADC
:1010B0008093BC008091BC0087FFFCCF8091B90079
:1010C000887F883021F0803111F081E0089590937D
:1010D000BB0084E88093BC008091BC0087FFFCCFFC
:1010E0009091B900987F983111F480E0089580E0E4
:1010F000903409F081E00895982F44EA34E824E917
:101100004093BC008091BC0087FFFCCF8091B90068
:10111000887F883011F0803199F79093BB0030932D
:10112000BC008091BC0087FFFCCF8091B900887F14
:10113000803211F0883539F42093BC008091BC00D6
:1011400084FDFCCFDDCF08950E945608089584E900
:101150008093BC008091BC0084FDFCCF08958093F7
:10116000BB0084E88093BC008091BC0087FFFCCF6B
:101170008091B90090E0887F883209F091E0892F52
:10118000089584EC8093BC008091BC0087FFFCCF65
:101190008091BB00089584E88093BC008091BC00DE
:1011A00087FFFCCF8091BB00089588E88093B8004A
:1011B0000895982F1092BC0084EA8093BC0080911F
:1011C000BC0087FFFCCF8091B900887F883011F088
:1011D00081E008959093BB0084E88093BC008091E7
:1011E000BC0087FFFCCF9091B900987F983111F433
:1011F00080E0089580E0903409F081E008958093C4
:10120000BB0084E88093BC008091BC0087FFFCCFCA
:101210008091B90090E0887F883209F091E0892FB1
:10122000089584EC8093BC008091BC0087FFFCCFC4
:101230008091BB00089584E88093BC008091BC003D
:1012400087FFFCCF8091BB000895EF92FF920F9330
:101250001F93CF93DF937B018A010E94D9088823D3
:10126000A1F4C0E0D0E009C0F701EC0FFD1F8081C0
:101270000E94FF08882349F42196C017D107A0F3E4
:1012800084E98093BC0080E001C081E0DF91CF91D0
:101290001F910F91FF90EF9008950F931F93CF939D
:1012A000DF93EB018A0181600E94D908882311F045
:1012B00081E029C020E030E0A8014150504094EC8A
:1012C0000EC09093BC008091BC0087FFFCCF809142
:1012D000BB00FE01E20FF31F80832F5F3F4F2417F7
:1012E000350778F384E88093BC008091BC0087FFC9
:1012F000FCCF8091BB00C00FD11F2197888384E968
:101300008093BC0080E0DF91CF911F910F910895F1
:10131000CF92DF92EF92FF921F93CF93DF93162F1E
:101320006A0179010E94D9088823B9F4812F0E94AB
:10133000FF08C0E0D0E009C0F601EC0FFD1F80817E
:101340000E94FF08882349F42196CE15DF05A0F3FB
:1013500084E98093BC0080E001C081E0DF91CF91FF
:101360001F91FF90EF90DF90CF900895EF92FF9242
:101370000F931F93CF93DF93182F062FEA01790164
:101380000E94D908882399F5802F0E94FF08812F99
:1013900081600E94D908882351F520E030E0A70140
:1013A0004150504094EC0EC09093BC008091BC0022
:1013B00087FFFCCF8091BB00FE01E20FF31F80830B
:1013C0002F5F3F4F2417350778F384E88093BC00E4
:1013D0008091BC0087FFFCCF8091BB00CE0DDF1D4C
:1013E0002197888384E98093BC0080E001C081E07C
:1013F000DF91CF911F910F91FF90EF90089584E9B5
:101400008093BC000895EF92FF920F93DF93CF93E8
:10141000CDB7DEB760970FB6F894DEBF0FBECDBF75
:10142000A82F002309F461C07E010894E11CF11C7F
:1014300088E0F70111928A95E9F729833A834B8373
:101440005C836D837E83AF83988780E2801BE82F67
:10145000FF27E7FDF09549815A816B817C81181641
:1014600084F019861A861B861C86882799278E1B6E
:101470009F0B04C0440F551F661F771F8A95D2F734
:1014800028C0202F332727FD3095DB01CA01022E0B
:1014900004C0880F991FAA1FBB1F0A94D2F789871F
:1014A0009A87AB87BC8704C0769567955795479513
:1014B000EA95D2F78D819E81AF81B88504C0880FEF
:1014C000991FAA1FBB1F2A95D2F7482B592B6A2BAD
:1014D0007B2B4D875E876F87788B29853A854B8577
:1014E0005C856D857E85AF8598898A2F60960FB65D
:1014F000F894DEBF0FBECDBFCF91DF910F91FF906B
:10150000EF900895AEE5B0E0E8E8FAE00C944C11F5
:10151000A8E04E010894811C911CF4016A2E1192DE
:101520006A94E9F729833A834B835C836D837E83D6
:101530008F839887CE010996FC011192AA95E9F74D
:10154000A986BA86CB86DC86ED86FE860F87188B49
:1015500029843A844B845C84ED84FE840F85188949
:1015600069807A808B809C806DA67EA68FA698AAC3
:101570006D807E808F809884E114F104010511054F
:1015800009F0B3C3621473048404950408F03DC1E8
:1015900000E0201600E0300601E0400600E05006C2
:1015A00088F41FEF211631044104510439F030F062
:1015B00048E0E42EF12C012D112D18C0EE24FF245B
:1015C000870114C020E0221620E0320620E0420607
:1015D00021E0520630F038E1E32EF12C012D112DDF
:1015E00005C020E1E22EF12C012D112DD201C10107
:1015F0000E2C04C0B695A795979587950A94D2F7B7
:10160000875C9E4FDC012C9180E290E0A0E0B0E08E
:101610008E199F09A00BB10B7C018D01E21AF10814
:1016200001091109E114F10401051105A1F10E2CC4
:1016300004C0220C331C441C551C0A94D2F7A4018C
:1016400093010E2C04C0220F331F441F551F0A9410
:10165000D2F780E290E08E199F096DA47EA48FA43A
:1016600098A804C096948794779467948A95D2F743
:10167000622A732A842A952AADA4BEA4CFA4D8A82E
:1016800004C0AA0CBB1CCC1CDD1CEA94D2F7ADA68E
:10169000BEA6CFA6D8AA6201EE24FF24CDAADEAA58
:1016A000EFAAF8AE920181012070307009AF1AAF35
:1016B0002BAF3CAFC401B301A70196010E940B11EF
:1016C0007B018C01C401B3012DA93EA94FA958ADDE
:1016D0000E940B11C901DA013C014D01C401B301A3
:1016E00029AD3AAD4BAD5CAD0E942D119B01AC0113
:1016F0008701FF24EE24ADA4BEA4CFA4D8A8C601C0
:10170000AA27BB2757016801A82AB92ACA2ADB2AB7
:10171000A216B306C406D506E0F408946108710861
:1017200081089108A20CB31CC41CD51CA214B304DC
:10173000C404D50470F0A216B306C406D50648F456
:1017400008946108710881089108A20CB31CC41C9C
:10175000D51CA21AB30AC40AD50AC601B5012DA91F
:101760003EA94FA958AD0E940B117B018C01C60107
:10177000B5012DA93EA94FA958AD0E940B11C90171
:10178000DA015C016D01C601B50129AD3AAD4BAD81
:101790005CAD0E942D119B01AC018701FF24EE245A
:1017A0008DA59EA5AFA5B8A9A070B070E82AF92AAA
:1017B0000A2B1B2BE216F30604071507C0F4089446
:1017C000A108B108C108D108E20CF31C041D151DC5
:1017D000E214F3040405150550F0E216F3060407BD
:1017E000150728F40894A108B108C108D108D3014D
:1017F0009927882786017501E82AF92A0A2B1B2BCD
:10180000E9AAFAAA0BAB1CABCFC4211431044104E2
:10181000510471F461E070E080E090E020E030E09D
:1018200040E050E00E940B11C901DA011C012D01BA
:1018300000E0201600E0300601E0400600E050061F
:1018400088F41FEF211631044104510431F028F0CF
:1018500048E050E060E070E017C040E050E060E039
:1018600070E012C020E0221620E0320620E042069E
:1018700021E0520628F048E150E060E070E004C04A
:1018800040E150E060E070E0D201C101042E04C0EC
:10189000B695A795979587950A94D2F7875C9E4F42
:1018A000DC012C91E0E2EE2EF12C012D112DD8015E
:1018B000C701841B950BA60BB70B821B9109A109CD
:1018C000B1090097A105B10561F464015301A218A3
:1018D000B308C408D50831E0632E712C812C912CFB
:1018E0001EC16F968FAF6F97082E04C0220C331C59
:1018F000441C551C0A94D2F7EE2DE81B64015301D9
:101900000E2E04C0D694C794B794A7940A94D2F725
:10191000A40193016F960FAC6F9704C0220F331F81
:10192000441F551F0A94D2F76DA47EA48FA498A8D3
:101930000E2E04C096948794779467940A94D2F7F5
:1019400084017301E22AF32A042B152BE9A6FAA6D7
:101950000BA71CA7320188249924920181012070D1
:10196000307021960CAF1DAF2EAF3FAF2197C6014F
:10197000B501A40193010E940B117B018C01C601EA
:10198000B501A40193010E940B11C901DA0125964A
:101990008CAF9DAFAEAFBFAF2597BC01CD012196F7
:1019A0002CAD3DAD4EAD5FAD21970E942D119B0139
:1019B000AC018701FF24EE24A9A4BAA4CBA4DCA423
:1019C000C601AA27BB275C016D01AE28BF28C02A2B
:1019D000D12AA216B306C406D50660F525966CADCD
:1019E0007DAD8EAD9FAD2597615070408040904099
:1019F00025966CAF7DAF8EAF9FAF2597A20CB31C21
:101A0000C41CD51CA214B304C404D50498F0A216B7
:101A1000B306C406D50670F4615070408040904013
:101A200025966CAF7DAF8EAF9FAF2597A20CB31CF0
:101A3000C41CD51CA21AB30AC40AD50AC601B50132
:101A4000A40193010E940B117B018C01C601B50119
:101A5000A40193010E940B11C901DA013C014D015F
:101A6000C401B30121962CAD3DAD4EAD5FAD2197C4
:101A70000E942D119B01AC018701FF24EE2489A552
:101A80009AA5ABA5BCA5A070B07057016801A82AA3
:101A9000B92ACA2ADB2AA216B306C406D506E0F480
:101AA00008946108710881089108A20CB31CC41C39
:101AB000D51CA214B304C404D50470F0A216B30656
:101AC000C406D50648F40894610871088108910895
:101AD000A20CB31CC41CD51C8DA59EA5AFA5B8A98E
:101AE0006F960FAC6F9704C0880F991FAA1FBB1F7A
:101AF0000A94D2F78DA79EA7AFA7B8ABA21AB30AD4
:101B0000C40AD50A2596ECACFDAC0EAD1FAD2597E9
:101B1000D70199278827682A792A8A2A9B2A82014D
:101B20002227332729960CAF1DAF2EAF3FAF299741
:101B3000A2019101407050702D962CAF3DAF4EAF79
:101B40005FAF2D97C601B50129962CAD3DAD4EADC9
:101B50005FAD29970E940B117B018C01C601B50175
:101B600029962CAD3DAD4EAD5FAD29970E940B116E
:101B7000C901DA0161968CAF9DAFAEAFBFAF61977F
:101B8000BC01CD012D962CAD3DAD4EAD5FAD2D9779
:101B90000E942D119B01AC018701FF24EE24ADA40E
:101BA000BEA4CFA4D8A8C601AA27BB2757016801A5
:101BB000A82AB92ACA2ADB2AA216B306C406D50661
:101BC00060F561966CAD7DAD8EAD9FAD6197615056
:101BD00070408040904061966CAF7DAF8EAF9FAFFC
:101BE0006197A20CB31CC41CD51CA214B304C4047A
:101BF000D50498F0A216B306C406D50670F4615059
:101C000070408040904061966CAF7DAF8EAF9FAFCB
:101C10006197A20CB31CC41CD51CA21AB30AC40A37
:101C2000D50AC601B50129962CAD3DAD4EAD5FADCF
:101C300029970E940B117B018C01C601B5012996E1
:101C40002CAD3DAD4EAD5FAD29970E940B11C90182
:101C5000DA015C016D01C601B5012D962CAD3DADDB
:101C60004EAD5FAD2D970E942D119B01AC018701F8
:101C7000FF24EE248DA59EA5AFA5B8A9A070B070D5
:101C8000E82AF92A0A2B1B2BE216F306040715078C
:101C9000C0F40894A108B108C108D108E20CF31CF3
:101CA000041D151DE214F3040405150550F0E21699
:101CB000F3060407150728F40894A108B108C10821
:101CC000D1086196ECACFDAC0EAD1FAD6197D701AC
:101CD0009927882796018501082B192B2A2B3B2B46
:101CE00009AB1AAB2BAB3CAB62C26E147F0480060F
:101CF000910608F451C220E0E21620E0F20621E04D
:101D0000020720E0120788F43FEFE316F104010513
:101D1000110531F028F048E050E060E070E017C0B5
:101D200040E050E060E070E012C040E0E41640E0C7
:101D3000F40640E0040741E0140728F048E150E0D1
:101D400060E070E004C040E150E060E070E0D80185
:101D5000C701042E04C0B695A795979587950A9458
:101D6000D2F7875C9E4FDC012C9130E2A32EB12C80
:101D7000C12CD12CD601C501841B950BA60BB70B2A
:101D8000821B9109A109B1090097A105B10589F448
:101D9000E614F7040805190508F4F2C16DA47EA441
:101DA0008FA498A8621473048404950408F0E8C111
:101DB000F3C16E968FAF6E97082E04C0EE0CFF1C19
:101DC000001F111F0A94D2F76A2D681BD201C101AE
:101DD000062E04C0B695A795979587950A94D2F7D5
:101DE0005C016D01AE28BF28C02AD12AADA2BEA2D7
:101DF000CFA2D8A6720161016E960FAC6E9704C097
:101E0000CC0CDD1CEE1CFF1C0A94D2F7C9A2DAA28E
:101E1000EBA2FCA264015301062E04C0D694C79421
:101E2000B794A7940A94D2F7D401C3016E960FAC6D
:101E30006E9704C0880F991FAA1FBB1F0A94D2F780
:101E4000EDA4FEA40FA518A904C016950795F79454
:101E5000E7946A95D2F737014801682A792A8A2AD5
:101E60009B2A6D8E7E8E8F8E98A2EDA0FEA00FA174
:101E700018A53801882499249801870120703070B2
:101E800065960CAF1DAF2EAF3FAF6597C601B5018C
:101E9000A40193010E940B117B018C01C601B501C5
:101EA000A40193010E940B11C901DA011C012D014B
:101EB000C201B10165962CAD3DAD4EAD5FAD6597EC
:101EC0000E942D119B01AC018701FF24EE24AD8CF3
:101ED000BE8CCF8CD8A0C601AA27BB2757016801AA
:101EE000A82AB92ACA2ADB2AA216B306C406D5062E
:101EF00000F508942108310841085108EDA0FEA022
:101F00000FA118A5AE0CBF1CC01ED11EAE14BF047D
:101F1000C006D10670F0A216B306C406D50648F472
:101F200008942108310841085108AE0CBF1CC01E9E
:101F3000D11EA21AB30AC40AD50AC601B501A4016A
:101F400093010E940B117B018C01C601B501A40114
:101F500093010E940B11C901DA013C014D01C4013A
:101F6000B30165962CAD3DAD4EAD5FAD65970E945A
:101F70002D119B01AC018701FF24EE248D8D9E8DD8
:101F8000AF8DB8A1A070B07057016801A82AB92A16
:101F9000CA2ADB2AA216B306C406D50600F50894A1
:101FA00061087108810891086DA17EA18FA198A593
:101FB000A60EB71EC81ED91EA616B706C806D90695
:101FC00070F0A216B306C406D50648F4089461085A
:101FD000710881089108A60EB71EC81ED91ED60129
:101FE000C501821B930BA40BB50B898F9A8FAB8F06
:101FF000BC8FD1019927882764015301A82AB92AE7
:10200000CA2ADB2AA9AABAAACBAADCAA8601750128
:102010002FEF3FEF40E050E0E222F32204231523AC
:10202000A601662777276D964CAF5DAF6EAF7FAF89
:102030006D97A9A0BAA0CBA0DCA06FEF7FEF80E0E6
:1020400090E0A622B722C822D92289A19AA1ABA1E9
:10205000BCA11D0144245524C801B701A601950166
:102060000E942D1169966CAF7DAF8EAF9FAF6997BF
:10207000C801B701A20191010E942D113B014C0141
:102080006D966CAD7DAD8EAD9FAD6D97A601950142
:102090000E942D117B018C016D966CAD7DAD8EADD6
:1020A0009FAD6D97A20191010E942D115B016C0102
:1020B000A8019701260D371D481D591D69966CAC66
:1020C0007DAC8EAC9FAC6997C401AA27BB27280FB3
:1020D000391F4A1F5B1F2E153F054007510748F463
:1020E000E12CF12C61E0062F112DAE0CBF1CC01E9F
:1020F000D11ECA01AA27BB27BC01CD016A0D7B1DD9
:102100008C1D9D1D698C7A8C8B8C9C8C6616770639
:102110008806990640F1661577058805990509F046
:1021200043C0D9019927882769962CAD3DAD4EADA6
:102130005FAD699740705070820F931FA41FB51F49
:102140002DA53EA54FA558A96E960FAC6E9704C05D
:10215000220F331F441F551F0A94D2F7281739073F
:102160004A075B0708F509A91AA92BA93CA9015040
:1021700010402040304009AB1AAB2BAB3CAB14C035
:1021800066247724430121E030E040E050E029ABB1
:102190003AAB4BAB5CAB0BC066247724430119AA66
:1021A0001AAA1BAA1CAA03C0662477244301FE01B5
:1021B000719688E0DF011D928A95E9F7A9A8BAA86F
:1021C000CBA8DCA8A98ABA8ACB8ADC8A6D8A7E8AE7
:1021D0008F8A988E29A93A894B895C89662D7E89D8
:1021E0008F89988DC25ADF4FE2E10C946811AA1BC7
:1021F000BB1B51E107C0AA1FBB1FA617B70710F0F2
:10220000A61BB70B881F991F5A95A9F78095909523
:10221000BC01CD010895A1E21A2EAA1BBB1BFD0132
:102220000DC0AA1FBB1FEE1FFF1FA217B307E407B5
:10223000F50720F0A21BB30BE40BF50B661F771F0D
:10224000881F991F1A9469F76095709580959095ED
:102250009B01AC01BD01CF010895629FD001739F26
:10226000F001829FE00DF11D649FE00DF11D929F32
:10227000F00D839FF00D749FF00D659FF00D992771
:10228000729FB00DE11DF91F639FB00DE11DF91F95
:10229000BD01CF01112408952F923F924F925F927A
:1022A0006F927F928F929F92AF92BF92CF92DF9266
:1022B000EF92FF920F931F93CF93DF93CDB7DEB7CB
:1022C000CA1BDB0B0FB6F894DEBF0FBECDBF09945F
:1022D0002A88398848885F846E847D848C849B84B6
:1022E000AA84B984C884DF80EE80FD800C811B81C4
:1022F000AA81B981CE0FD11D0FB6F894DEBF0FBEF3
:0A230000CDBFED010895F894FFCF62
:10230A00503D00543D000A643D202B000A643D20E4
:10231A002D0050524F4752414D204D454D4F525975
:10232A003A0020505349200020424153454C494E1F
:10233A00452052455345542000000102020303037D
:10234A00030404040404040404050505050505053D
:10235A00050505050505050505060606060606061C
:10236A000606060606060606060606060606060603
:10237A0006060606060606060607070707070707EC
:10238A0007070707070707070707070707070707D3
:10239A0007070707070707070707070707070707C3
:1023AA0007070707070707070707070707070707B3
:1023BA00070707070707070707080808080808089C
:1023CA000808080808080808080808080808080883
:1023DA000808080808080808080808080808080873
:1023EA000808080808080808080808080808080863
:1023FA000808080808080808080808080808080853
:10240A000808080808080808080808080808080842
:10241A000808080808080808080808080808080832
:10242A000808080808080808080808080808080822
:0A243A000808080808080808080050
:00000001FF
