:1000000012C019C018C017C016C015C014C013C044
:1000100012C011C010C00FC00EC00DC00CC00BC06C
:100020000AC009C008C011241FBECFE5D4E0DEBF5E
:10003000CDBF9AD056C1E4CF88E893E10197F1F79C
:100040000895929A88E893E10197F1F792980895BC
:10005000939A88E893E1FC013197F1F70197F1F762
:10006000939808950895813009F4949A929A88E8B3
:1000700093E10197F1F7929894980895CF92DF92C7
:10008000EF92FF920F931F93CF93DF936B017C014D
:10009000929A08E813E1C8010197F1F79298C80114
:1000A0000197F1F7D5DFC8010197F1F7C0E0D0E083
:1000B000D701C6010C2E04C0B695A79597958795D4
:1000C0000A94D2F78170CFDF2196C032D10581F733
:1000D00000E080E0C8DF0F5F0830D9F7B9DFDF91BB
:1000E000CF911F910F91FF90EF90DF90CF900895E7
:1000F000AF92BF92CF92DF92EF92FF920F931F9336
:100100005B016C019B01A60160E070E080E090E083
:1001100000E246D0B901CA0120E439E543E757E0DF
:10012000BED0CA01B9011F910F91FF90EF90DF90EF
:10013000CF90BF90AF90089520E03FEF44EF51E0A3
:1001400032BB84EF91E0FA013197F1F70197D9F7CB
:1001500012BA84EF91E0FA013197F1F70197D9F7DC
:100160002F5F243169F70895CF93DF938FEF81BB21
:1001700080E197E224EF31E0F9013197F1F701973F
:10018000D9F7C4EFD1E069E174E086E59EE076DF5F
:1001900080E197E2FE013197F1F70197D9F7F3CFAC
:1001A000EF92FF920F93DF93CF93CDB7DEB76097B7
:1001B0000FB6F894DEBF0FBECDBFA82F002309F401
:1001C00061C07E010894E11CF11C88E0F7011192E6
:1001D0008A95E9F729833A834B835C836D837E8319
:1001E000AF83988780E2801BE82FFF27E7FDF0951B
:1001F00049815A816B817C81181684F019861A8690
:100200001B861C86882799278E1B9F0B04C0440FD2
:10021000551F661F771F8A95D2F728C0202F3327D6
:1002200027FD3095DB01CA01022E04C0880F991FFB
:10023000AA1FBB1F0A94D2F789879A87AB87BC870E
:1002400004C07695679557954795EA95D2F78D81C5
:100250009E81AF81B88504C0880F991FAA1FBB1F5C
:100260002A95D2F7482B592B6A2B7B2B4D875E871B
:100270006F87788B29853A854B855C856D857E8572
:10028000AF8598898A2F60960FB6F894DEBF0FBEAF
:10029000CDBFCF91DF910F91FF90EF900895A1E234
:1002A0001A2EAA1BBB1BFD010DC0AA1FBB1FEE1FF0
:1002B000FF1FA217B307E407F50720F0A21BB30B3B
:1002C000E40BF50B661F771F881F991F1A9469F7B7
:1002D00060957095809590959B01AC01BD01CF0113
:0602E0000895F894FFCF21
:00000001FF
