:100000000EC015C014C013C012C011C010C00FC064
:100010000EC00DC00CC00BC00AC009C008C011241E
:100020001FBECFE5D2E0DEBFCDBF02D033C0E8CFE8
:10003000399A379A86B1866086B9359A369A28EC0D
:1000400030E0C49ABC9A84EF91E0F9013197F1F75E
:100050000197D9F7BC98C49884EF91E0F9013197E2
:10006000F1F70197D9F784B195B1893C910548F32F
:1000700088EE93E0F9013197F1F70197D9F784B150
:1000800095B1893C9105D8F784B195B1883C91052B
:08009000D8F3D7CFF894FFCF9D
:00000001FF
