:1000000012C024C023C022C021C020C01FC01EC0F7
:100010001DC01CC01BC01AC019C018C017C016C014
:1000200015C014C013C011241FBECFE5D4E0DEBF3D
:10003000CDBF11E0A0E6B0E0EAECF0E102C005902F
:100040000D92A036B107D9F768D03DC8D9CF929AA2
:1000500092980895939A939808950895813009F499
:10006000949A929A929894980895EF92FF920F938F
:100070001F93CF93DF937B018C01929A9298939A6E
:100080009398C0E0D0E0D801C7010C2E04C0B6950B
:10009000A795979587950A94D2F78170DFDF21960F
:1000A000C032D10581F710E080E0D8DF1F5F183043
:1000B000D9F7939A9398DF91CF911F910F91FF9069
:1000C000EF900895AF92BF92CF92DF92EF92FF929E
:1000D0000F931F935B016C019B01A60160E070E030
:1000E00080E090E000E2A2D0B0E4AB2EA9E5BA2E09
:1000F000F3E7CF2EE7E0DE2EEE24FF2400E010E051
:1001000014D1952FB901842F1F910F91FF90EF907B
:10011000DF90CF90BF90AF900895DF92EF92FF9263
:100120000F931F93CF93DF938FEF81BBDD24C8EC38
:10013000D0E014C0D3946D2D772767FD7095872F7D
:10014000972F6853794485469F4FBCDF8EDF80E34D
:1001500095E7FE013197F1F70197D9F789E08D1501
:100160004CF7DA94ED2CFF24E7FCF0940F2D1F2DB3
:10017000D39488EC96EBAAE9B0E0E80EF91E0A1FCA
:100180001B1FDA94C801B7019DDF6FDF8FEF9FEF70
:10019000FE013197F1F70197D9F70894E108F108CA
:1001A000010911091D146CF391E3E92E91EDF92E6B
:1001B0009AE6092F112DC801B70184DF56DF80E3CD
:1001C00095E7FE013197F1F70197D9F70894E11C03
:1001D000F11C011D111D9BE3E91691EDF9069AE64C
:1001E000090790E0190739F789E3E82E81EDF82E29
:1001F0008AE6082F112DC801B70164DF36DF8FEFC3
:100200009FEFFE013197F1F70197D9F70894E108C4
:10021000F10801091109AFE2EA16A1EDFA06AAE612
:100220000A07A0E01A0739F7DD2484CFEF92FF9286
:100230000F93DF93CF93CDB7DEB760970FB6F894E7
:10024000DEBF0FBECDBFA82F002309F461C07E0121
:100250000894E11CF11C88E0F70111928A95E9F7F6
:1002600029833A834B835C836D837E83AF83988736
:1002700080E2801BE82FFF27E7FDF09549815A8136
:100280006B817C81181684F019861A861B861C8661
:10029000882799278E1B9F0B04C0440F551F661F8C
:1002A000771F8A95D2F728C0202F332727FD309556
:1002B000DB01CA01022E04C0880F991FAA1FBB1FB1
:1002C0000A94D2F789879A87AB87BC8704C0769552
:1002D000679557954795EA95D2F78D819E81AF81B5
:1002E000B88504C0880F991FAA1FBB1F2A95D2F793
:1002F000482B592B6A2B7B2B4D875E876F87788B1A
:1003000029853A854B855C856D857E85AF85988985
:100310008A2F60960FB6F894DEBF0FBECDBFCF9187
:10032000DF910F91FF90EF900895AEE5B0E0EAE91C
:10033000F1E092C6A8E04E010894811C911CF401E2
:100340006A2E11926A94E9F729833A834B835C837E
:100350006D837E838F839887CE010996FC0111926D
:10036000AA95E9F7A986BA86CB86DC86ED86FE8655
:100370000F87188B29843A844B845C84ED84FE8437
:100380000F85188969807A808B809C806DA67EA6F7
:100390008FA698AA6D807E808F809884E114F104E6
:1003A0000105110509F0A0C36214730484049504C7
:1003B00008F037C100E0201600E0300601E04006FA
:1003C00000E0500688F41FEF211631044104510467
:1003D00039F030F048E0E42EF12C012D112D18C039
:1003E000EE24FF24870114C020E0221620E032060C
:1003F00020E0420621E0520630F038E1E32EF12CF5
:10040000012D112D05C020E1E22EF12C012D112D21
:10041000D201C1010E2C04C0B695A795979587957A
:100420000A94D2F7805A9F4FDC012C9180E290E031
:10043000A0E0B0E08E199F09A00BB10B7C018D01EB
:10044000E21AF10801091109E114F104010511058D
:10045000A1F10E2C04C0220C331C441C551C0A9420
:10046000D2F7A40193010E2C04C0220F331F441FA6
:10047000551F0A94D2F780E290E08E199F096DA46F
:100480007EA48FA498A804C09694879477946794C8
:100490008A95D2F7622A732A842A952AADA4BEA42B
:1004A000CFA4D8A804C0AA0CBB1CCC1CDD1CEA94A9
:1004B000D2F7ADA6BEA6CFA6D8AA6201EE24FF242D
:1004C000CDAADEAAEFAAF8AE9201810120703070A9
:1004D00009AF1AAF2BAF3CAFC401B301A70196011E
:1004E00099D57B018C01C401B3012DA93EA94FA967
:1004F00058AD90D5C901DA013C014D01C401B301E9
:1005000029AD3AAD4BAD5CAD66D59B01AC01870121
:10051000FF24EE24ADA4BEA4CFA4D8A8C601AA2768
:10052000BB2757016801A82AB92ACA2ADB2AA216C2
:10053000B306C406D506E0F4089461087108810882
:100540009108A20CB31CC41CD51CA214B304C4048F
:10055000D50470F0A216B306C406D50648F4089474
:100560006108710881089108A20CB31CC41CD51C39
:10057000A21AB30AC40AD50AC601B5012DA93EA91B
:100580004FA958AD47D57B018C01C601B5012DA9F6
:100590003EA94FA958AD3ED5C901DA015C016D01F4
:1005A000C601B50129AD3AAD4BAD5CAD14D59B018B
:1005B000AC018701FF24EE248DA59EA5AFA5B8A9A7
:1005C000A070B070E82AF92A0A2B1B2BE216F3065A
:1005D00004071507C0F40894A108B108C108D108A0
:1005E000E20CF31C041D151DE214F30404051505AB
:1005F00050F0E216F3060407150728F40894A10842
:10060000B108C108D108D30199278827860175014F
:10061000E82AF92A0A2B1B2BE9AAFAAA0BAB1CAB76
:10062000B8C4211431044104510469F461E070E05C
:1006300080E090E020E030E040E050E0EBD4C90101
:10064000DA011C012D0100E0201600E0300601E077
:10065000400600E0500688F41FEF211631044104E3
:10066000510431F028F048E050E060E070E017C03D
:1006700040E050E060E070E012C020E0221620E090
:10068000320620E0420621E0520628F048E150E020
:1006900060E070E004C040E150E060E070E0D20152
:1006A000C101042E04C0B695A795979587950A9425
:1006B000D2F7805A9F4FDC012C91E0E2EE2EF12C14
:1006C000012D112DD801C701841B950BA60BB70B6B
:1006D000821B9109A109B1090097A105B10561F437
:1006E00064015301A218B308C408D50831E0632E91
:1006F000712C812C912C18C16F968FAF6F97082E9B
:1007000004C0220C331C441C551C0A94D2F7EE2D55
:10071000E81B640153010E2E04C0D694C794B7940D
:10072000A7940A94D2F7A40193016F960FAC6F9728
:1007300004C0220F331F441F551F0A94D2F76DA423
:100740007EA48FA498A80E2E04C0969487947794C4
:1007500067940A94D2F784017301E22AF32A042BE6
:10076000152BE9A6FAA60BA71CA732018824992409
:10077000920181012070307021960CAF1DAF2EAF19
:100780003FAF2197C601B501A401930143D47B017A
:100790008C01C601B501A40193013CD4C901DA0161
:1007A00025968CAF9DAFAEAFBFAF2597BC01CD01F5
:1007B00021962CAD3DAD4EAD5FAD21970CD49B0184
:1007C000AC018701FF24EE24A9A4BAA4CBA4DCA425
:1007D000C601AA27BB275C016D01AE28BF28C02A2D
:1007E000D12AA216B306C406D50660F525966CADCF
:1007F0007DAD8EAD9FAD259761507040804090409B
:1008000025966CAF7DAF8EAF9FAF2597A20CB31C22
:10081000C41CD51CA214B304C404D50498F0A216B9
:10082000B306C406D50670F4615070408040904015
:1008300025966CAF7DAF8EAF9FAF2597A20CB31CF2
:10084000C41CD51CA21AB30AC40AD50AC601B50134
:10085000A4019301DFD37B018C01C601B501A40182
:100860009301D8D3C901DA013C014D01C401B301A0
:1008700021962CAD3DAD4EAD5FAD2197ACD39B0124
:10088000AC018701FF24EE2489A59AA5ABA5BCA5E0
:10089000A070B07057016801A82AB92ACA2ADB2AB9
:1008A000A216B306C406D506E0F4089461087108E0
:1008B00081089108A20CB31CC41CD51CA214B3045B
:1008C000C404D50470F0A216B306C406D50648F4D5
:1008D00008946108710881089108A20CB31CC41C1B
:1008E000D51C8DA59EA5AFA5B8A96F960FAC6F9727
:1008F00004C0880F991FAA1FBB1F0A94D2F78DA7A7
:100900009EA7AFA7B8ABA21AB30AC40AD50A259608
:10091000ECACFDAC0EAD1FAD2597D701992788270C
:10092000682A792A8A2A9B2A820122273327299634
:100930000CAF1DAF2EAF3FAF2997A20191014070C0
:1009400050702D962CAF3DAF4EAF5FAF2D97C601C7
:10095000B50129962CAD3DAD4EAD5FAD29975AD36B
:100960007B018C01C601B50129962CAD3DAD4EAD84
:100970005FAD29974FD3C901DA0161968CAF9DAF66
:10098000AEAFBFAF6197BC01CD012D962CAD3DAD93
:100990004EAD5FAD2D971FD39B01AC018701FF24A6
:1009A000EE24ADA4BEA4CFA4D8A8C601AA27BB2715
:1009B00057016801A82AB92ACA2ADB2AA216B30657
:1009C000C406D50660F561966CAD7DAD8EAD9FAD6C
:1009D0006197615070408040904061966CAF7DAFF0
:1009E0008EAF9FAF6197A20CB31CC41CD51CA21480
:1009F000B304C404D50498F0A216B306C406D50601
:100A000070F4615070408040904061966CAF7DAF53
:100A10008EAF9FAF6197A20CB31CC41CD51CA21A49
:100A2000B30AC40AD50AC601B50129962CAD3DAD5D
:100A30004EAD5FAD2997EED27B018C01C601B501A9
:100A400029962CAD3DAD4EAD5FAD2997E3D2C901DE
:100A5000DA015C016D01C601B5012D962CAD3DADED
:100A60004EAD5FAD2D97B7D29B01AC018701FF243E
:100A7000EE248DA59EA5AFA5B8A9A070B070E82AF8
:100A8000F92A0A2B1B2BE216F30604071507C0F4FC
:100A90000894A108B108C108D108E20CF31C041D98
:100AA000151DE214F3040405150550F0E216F306D3
:100AB0000407150728F40894A108B108C108D10853
:100AC0006196ECACFDAC0EAD1FAD6197D7019927D7
:100AD000882796018501082B192B2A2B3B2B09AB64
:100AE0001AAB2BAB3CAB58C26E147F048006910648
:100AF00008F447C220E0E21620E0F20621E00207F7
:100B000020E0120788F43FEFE316F1040105110518
:100B100031F028F048E050E060E070E017C040E0BD
:100B200050E060E070E012C040E0E41640E0F406FF
:100B300040E0040741E0140728F048E150E060E09D
:100B400070E004C040E150E060E070E0D801C7010F
:100B5000042E04C0B695A795979587950A94D2F769
:100B6000805A9F4FDC012C9130E2A32EB12CC12C76
:100B7000D12CD601C501841B950BA60BB70B821B8C
:100B80009109A109B1090097A105B10589F4E614FD
:100B9000F7040805190508F4E8C16DA47EA48FA424
:100BA00098A8621473048404950408F0DEC1E9C1B6
:100BB0006E968FAF6E97082E04C0EE0CFF1C001FC0
:100BC000111F0A94D2F76A2D681BD201C101062EAB
:100BD00004C0B695A795979587950A94D2F75C01BE
:100BE0006D01AE28BF28C02AD12AADA2BEA2CFA2D5
:100BF000D8A6720161016E960FAC6E9704C0CC0C42
:100C0000DD1CEE1CFF1C0A94D2F7C9A2DAA2EBA2EB
:100C1000FCA264015301062E04C0D694C794B79475
:100C2000A7940A94D2F7D401C3016E960FAC6E97C5
:100C300004C0880F991FAA1FBB1F0A94D2F7EDA406
:100C4000FEA40FA518A904C016950795F794E7947C
:100C50006A95D2F737014801682A792A8A2A9B2A9D
:100C60006D8E7E8E8F8E98A2EDA0FEA00FA118A58E
:100C70003801882499249801870120703070659686
:100C80000CAF1DAF2EAF3FAF6597C601B501A401F4
:100C90009301C0D17B018C01C601B501A401930170
:100CA000B9D1C901DA011C012D01C201B10165965A
:100CB0002CAD3DAD4EAD5FAD65978DD19B01AC01C7
:100CC0008701FF24EE24AD8CBE8CCF8CD8A0C6014A
:100CD000AA27BB2757016801A82AB92ACA2ADB2AF2
:100CE000A216B306C406D50600F5089421083108FB
:100CF00041085108EDA0FEA00FA118A5AE0CBF1C25
:100D0000C01ED11EAE14BF04C006D10670F0A216DC
:100D1000B306C406D50648F40894210831084108F2
:100D20005108AE0CBF1CC01ED11EA21AB30AC40AC1
:100D3000D50AC601B501A40193016CD17B018C01D8
:100D4000C601B501A401930165D1C901DA013C01D5
:100D50004D01C401B30165962CAD3DAD4EAD5FAD07
:100D6000659739D19B01AC018701FF24EE248D8D5D
:100D70009E8DAF8DB8A1A070B07057016801A82AF0
:100D8000B92ACA2ADB2AA216B306C406D50600F57C
:100D9000089461087108810891086DA17EA18FA156
:100DA00098A5A60EB71EC81ED91EA616B706C80659
:100DB000D90670F0A216B306C406D50648F4089406
:100DC0006108710881089108A60EB71EC81ED91EB9
:100DD000D601C501821B930BA40BB50B898F9A8F8B
:100DE000AB8FBC8FD1019927882764015301A82AB2
:100DF000B92ACA2ADB2AA9AABAAACBAADCAA8601DE
:100E000075012FEF3FEF40E050E0E222F322042390
:100E10001523A601662777276D964CAF5DAF6EAFA1
:100E20007FAF6D97A9A0BAA0CBA0DCA06FEF7FEF3A
:100E300080E090E0A622B722C822D92289A19AA1F7
:100E4000ABA1BCA11D0144245524C801B701A601D2
:100E50009501C1D069966CAF7DAF8EAF9FAF69979A
:100E6000C801B701A2019101B6D03B014C016D96BA
:100E70006CAD7DAD8EAD9FAD6D97A6019501ABD0EC
:100E80007B018C016D966CAD7DAD8EAD9FAD6D9788
:100E9000A2019101A0D05B016C01A8019701260D70
:100EA000371D481D591D69966CAC7DAC8EAC9FAC4E
:100EB0006997C401AA27BB27280F391F4A1F5B1F48
:100EC0002E153F054007510748F4E12CF12C61E055
:100ED000062F112DAE0CBF1CC01ED11ECA01AA27A1
:100EE000BB27BC01CD016A0D7B1D8C1D9D1D698C2E
:100EF0007A8C8B8C9C8C661677068806990640F156
:100F0000661577058805990509F043C0D901992729
:100F1000882769962CAD3DAD4EAD5FAD69974070A9
:100F20005070820F931FA41FB51F2DA53EA54FA57E
:100F300058A96E960FAC6E9704C0220F331F441F42
:100F4000551F0A94D2F7281739074A075B0708F597
:100F500009A91AA92BA93CA90150104020403040F2
:100F600009AB1AAB2BAB3CAB14C06624772443010E
:100F700021E030E040E050E029AB3AAB4BAB5CAB5A
:100F80000BC066247724430119AA1AAA1BAA1CAA1B
:100F900003C0662477244301FE01719688E0DF01D7
:100FA0001D928A95E9F7A9A8BAA8CBA8DCA8A98AB6
:100FB000BA8ACB8ADC8A6D8A7E8A8F8A988E29A922
:100FC0003A894B895C89662D7E898F89988DC25AB2
:100FD000DF4FE2E15DC0629FD001739FF001829F0D
:100FE000E00DF11D649FE00DF11D929FF00D839FB8
:100FF000F00D749FF00D659FF00D9927729FB00D55
:10100000E11DF91F639FB00DE11DF91FBD01CF0167
:1010100011240895A1E21A2EAA1BBB1BFD010DC0CD
:10102000AA1FBB1FEE1FFF1FA217B307E407F50798
:1010300020F0A21BB30BE40BF50B661F771F881F74
:10104000991F1A9469F760957095809590959B010A
:10105000AC01BD01CF0108952F923F924F925F9254
:101060006F927F928F929F92AF92BF92CF92DF92B8
:10107000EF92FF920F931F93CF93DF93CDB7DEB71D
:10108000CA1BDB0B0FB6F894DEBF0FBECDBF0994B1
:101090002A88398848885F846E847D848C849B8408
:1010A000AA84B984C884DF80EE80FD800C811B8116
:1010B000AA81B981CE0FD11D0FB6F894DEBF0FBE45
:0A10C000CDBFED010895F894FFCFB5
:1010CA0000010202030303030404040404040404E5
:1010DA0005050505050505050505050505050505B6
:1010EA000606060606060606060606060606060696
:1010FA000606060606060606060606060606060686
:10110A000707070707070707070707070707070765
:10111A000707070707070707070707070707070755
:10112A000707070707070707070707070707070745
:10113A000707070707070707070707070707070735
:10114A000808080808080808080808080808080815
:10115A000808080808080808080808080808080805
:10116A0008080808080808080808080808080808F5
:10117A0008080808080808080808080808080808E5
:10118A0008080808080808080808080808080808D5
:10119A0008080808080808080808080808080808C5
:1011AA0008080808080808080808080808080808B5
:1011BA0008080808080808080808080808080808A5
:00000001FF
