:100000000C9434000C9449000C9449000C94490061
:100010000C9449000C9449000C9449000C9449003C
:100020000C9449000C9449000C9449000C9449002C
:100030000C9449000C9449000C9449000C9449001C
:100040000C9449000C9449000C9449000C9449000C
:100050000C9449000C9449000C9449000C944900FC
:100060000C9449000C94490011241FBECFEFD8E036
:10007000DEBFCDBF11E0A0E0B1E0EAE1F3E002C0F5
:1000800005900D92AA31B107D9F70E9416010C9480
:100090008B010C94000083E290E09093C500809364
:1000A000C400E1ECF0E0808188608083E2ECF0E065
:1000B0008081846080830895982F8091C00085FF9F
:1000C000FCCF9093C6000895FC0107C08091C0004A
:1000D00085FFFCCF31969093C60090819923B1F7AC
:1000E00008958091C00085FFFCCF8AE08093C60010
:1000F0008091C00085FFFCCF8DE08093C6000895FD
:100100008091C00085FFFCCF8CE28093C600809177
:10011000C00085FFFCCF80E28093C60008956F92F7
:100120007F928F929F92AF92BF92CF92DF92EF9287
:10013000FF920F931F93CF93DF935B016C01E12C30
:100140008AECF82E8AE9082F8BE3182FC0E0D0E064
:100150008091C00085FFFCCFB501C601A8019701C1
:100160000E946901205D2093C600C801B7012AE002
:1001700030E040E050E00E946901922E832E742E00
:10018000652E2196CA30D10589F0B501C601A801B6
:1001900097010E9469015B016C01292D382D472DC3
:1001A000562DC901DA017C018D01D2CFDF91CF91AB
:1001B0001F910F91FF90EF90DF90CF90BF90AF9085
:1001C0009F908F907F906F900895AC0127E030E072
:1001D00070E361E3CA01022E02C0959587950A94E7
:1001E000E2F780FF07C08091C00085FFFCCF6093DD
:1001F000C60006C08091C00085FFFCCF7093C6008A
:10020000215030408FEF2F3F380721F708950E948B
:10021000710091E48091C00085FFFCCF9093C600EF
:100220009F5F9B35B9F70E9471000895CF93DF93CC
:1002300082E084B981E084B983E290E09093C500C4
:100240008093C4008091C10088608093C100809138
:10025000C20084608093C20080E091E00E9464004C
:100260000E94710089E091E00E9464000E94710088
:1002700060E070E080E090E0A0E0C0E0DCE61DC05F
:10028000289AFE013197F1F7289820E030E040E00D
:1002900050E000B605FC0CC02F5F3F4F4F4F5F4F43
:1002A0002035E3EC3E07E0E04E07E0E05E0789F72B
:1002B000620F731F841F951FAF5FAA300CF30E945B
:1002C0008F000E94710060E070E080E090E0A0E0AC
:1002D000D7CFA1E21A2EAA1BBB1BFD010DC0AA1F7E
:1002E000BB1FEE1FFF1FA217B307E407F50720F09F
:1002F000A21BB30BE40BF50B661F771F881F991F1A
:100300001A9469F760957095809590959B01AC0162
:0A031000BD01CF010895F894FFCF5E
:10031A0052616D702044564D007777772E535748B7
:0A032A00617264656E2E636F6D0052
:00000001FF
