:100000000C9434000C9451000C9451000C94510049
:100010000C9451000C9451000C9451000C9451001C
:100020000C9451000C9451000C9451000C9451000C
:100030000C9451000C9451000C9451000C945100FC
:100040000C9451000C9451000C9451000C945100EC
:100050000C9451000C9451000C9451000C945100DC
:100060000C9451000C94510011241FBECFEFD8E026
:10007000DEBFCDBF11E0A0E0B1E0E6ECF2E002C0EF
:1000800005900D92A230B107D9F711E0A2E0B1E0DE
:1000900001C01D92A630B107E1F70E945B010C94EC
:1000A00061010C9400008FEF87B91AB80895813070
:1000B00011F435E00BC0823011F434E007C0833016
:1000C00011F433E003C0843009F432E0613059F4B4
:1000D00028B181E090E002C0880F991F3A95E2F7BD
:1000E000282B28B90895662359F428B181E090E0BF
:1000F00002C0880F991F3A95E2F78095822388B94C
:100100000895813011F490E00BC0823011F491E039
:1001100007C0833011F492E003C0843009F493E007
:1001200089B121E030E002C0220F331F9A95E2F737
:100130008223089581E00E948100882339F0809114
:100140000201882319F488E18093020182E00E9471
:100150008100882339F080910301882319F488E114
:100160008093030183E00E948100882339F080910D
:100170000401882319F488E18093040184E00E943B
:100180008100882339F080910501882319F488E1E2
:100190008093050108958091020184311CF081E073
:1001A00061E002C081E060E00E945700809103019D
:1001B00084311CF082E061E002C082E060E00E94D5
:1001C00057008091040184311CF083E061E002C09B
:1001D00083E060E00E9457008091050184311CF0AB
:1001E00084E061E002C084E060E00E94570008956E
:1001F00080910201882329F080910201815080932F
:10020000020180910301882329F08091030181502C
:100210008093030180910401882329F080910401D7
:1002200081508093040180910501882329F08091F9
:10023000050181508093050108951F93CF93DF93AB
:10024000CCECDAE01EE00E949A000E94CB00CE01C6
:100250000197F1F7812F8A95F1F70E94F800F3CF0B
:10026000EF92FF921F93CF93DF93EC01E12C88ED87
:10027000F82E16C011E0812F61E00E945700C701DF
:100280000197F1F71F5F1530B1F711E0812F60E0A2
:100290000E945700C7010197F1F71F5F1530B1F7B2
:1002A00021978FEFCF3FD80729F7DF91CF911F918B
:1002B000FF90EF9008958FEF87B91AB80E941D0143
:0602C0000895F894FFCF41
:0202C60005141D
:00000001FF
