:100000000C9434000C9451000C9451000C94510049
:100010000C9451000C9451000C9451000C9451001C
:100020000C9451000C9451000C9451000C9451000C
:100030000C9451000C9451000C9451000C945100FC
:100040000C9451000C9451000C9452010C947E01BC
:100050000C9451000C9451000C9451000C945100DC
:100060000C9451000C94510011241FBECFEFD8E026
:10007000DEBFCDBF11E0A0E0B1E0E8E2FDE002C0EC
:1000800005900D92A630B107D9F711E0A6E0B1E0D6
:1000900001C01D92A435B107E1F70E9447010C94FD
:1000A00092060C940000AF92BF92CF92DF92EF9233
:1000B000FF920F931F935B016C01E12C8AECF82EE9
:1000C0008AE9082F8BE3182FB501C601A801970113
:1000D0000E947006822F805D0E948204B501C601D5
:1000E000A80197010E9470065B016C01C801B7016D
:1000F0002AE030E040E050E00E947006C901DA01D9
:100100007C018D0184E6E816F1040105110591F0EA
:1001100080EAE81686E8F80681E0080780E018071C
:1001200049F080E0E81681EEF80685EF080785E0E3
:10013000180721F48CE20E948204C6CFE114F10476
:100140000105110509F61F910F91FF90EF90DF90C7
:10015000CF90BF90AF900895AF92BF92CF92DF92B1
:10016000EF92FF920F931F93DF93CF9300D000D0B5
:1001700000D0CDB7DEB788E489838EEE8E010F5FA5
:100180001F4FB80141E050E00E94920550E2E52E79
:100190005EE4F52EC7010197F1F719828EEEB801E2
:1001A00041E050E00E9492058FEEB80143E050E03C
:1001B0000E94BA05A980BB24CC24DD24DC2CCB2CE6
:1001C000BA2CAA248A81A80EB11CC11CD11CDC2C1B
:1001D000CB2CBA2CAA248B81A80EB11CC11CD11C1B
:1001E00088E589838EEEB80141E050E00E949205D7
:1001F000C7010197F1F719828EEEB80141E050E096
:100200000E9492058FEEB80143E050E00E94BA05CB
:10021000E980FF2400E010E0102F0F2DFE2CEE24CB
:100220008A81E80EF11C011D111D102F0F2DFE2CCF
:10023000EE248B81E80EF11C011D111D80E060E0B1
:100240000E947A0480E091E00E94B104C601B501E9
:100250000E94530080E061E00E947A0483E091E014
:100260000E94B104C801B7010E94530026960FB640
:10027000F894DEBF0FBECDBFCF91DF911F910F91DC
:10028000FF90EF90DF90CF90BF90AF9008958CE0FB
:100290000E94270481E00E9406030E941F040E941E
:1002A000AC00FDCF1F920F920FB60F9211242F9327
:1002B0008F939F93EF93FF939091C0002091C6007E
:1002C000E0914801EF5FEF7180914901E81711F467
:1002D00082E008C0892F8871E0934801F0E0EA5D70
:1002E000FE4F208380934A01FF91EF919F918F9160
:1002F0002F910F900FBE0F901F9018951F920F9285
:100300000FB60F9211248F939F93EF93FF939091C9
:10031000460180914701981769F0E0914701EF5F2E
:10032000EF71E0934701F0E0EA5FFE4F8081809338
:10033000C60005C08091C1008F7D8093C100FF91F0
:10034000EF919F918F910F900FBE0F901F90189576
:100350009C011092460110924701109248011092A0
:10036000490197FF04C082E08093C0003F7730933B
:10037000C5002093C40088E98093C10086E0809383
:10038000C20008959091480180914901981719F48D
:1003900020E031E012C0E0914901EF5FEF71E0939E
:1003A0004901F0E0EA5DFE4F308120914A01922F31
:1003B00080E0AC01430F511D9A01C9010895282F17
:1003C000909146019F5F9F71809147019817E1F3DB
:1003D000E92FF0E0EA5FFE4F208390934601809181
:1003E000C10080628093C1000895CF93DF93EC0138
:1003F00003C021960E94DF0188818823D1F7DF9115
:10040000CF910895CF93DF93EC0102C00E94DF01EA
:10041000FE01219684918823C9F7DF91CF91089539
:10042000883010F08FEF0895E82FF0E0E45BFE4F86
:1004300080810895883088F4683078F4E82FF0E0FF
:10044000E45BFE4F8081992787FD909502C09595CA
:1004500087956A95E2F7817008958FEF08951F934D
:10046000883010F01FEF0DC090E08796880F991F1D
:1004700081600E94C3040E943805182F10950E94C5
:100480001405812F1F9108951F93162F883080F433
:10049000683070F40E942F028F3F59F0992787FD32
:1004A000909502C0959587951A95E2F7817001C0E5
:1004B0008FEF1F9108951F93282F883068F56830BB
:1004C00058F5A82FB0E0FD01E45BFE4FE081442326
:1004D00051F081E090E002C0880F991F6A95E2F721
:1004E0001E2F182B0AC081E090E002C0880F991FD0
:1004F0006A95E2F7182F10951E23A45BBE4F1C933C
:10050000295D822F880F0E94C304812F0E941C0541
:100510000E94140580E001C08FEF1F91089540E014
:100520000E945B02089541E00E945B0208951F93C0
:10053000782F842F783008F03FC0A42FB0E0462FEA
:1005400050E04A1B5B0B9FEF4F3F5907ACF16830FF
:1005500098F5662389F1882379F1E72FF0E0E45BD1
:10056000FE4F60814F5F5F4F332727FD3095042E8C
:1005700002C0220F331F0A94E2F781E090E002C02C
:10058000880F991FAA95E2F7019702C0880F991F5B
:100590004A95E2F7182F109516238223182B108303
:1005A000795D872F880F0E94C304812F0E941C054C
:1005B0000E94140580E001C08FEF1F9108951F93E2
:1005C000162F883010F08FEF0FC0E82FF0E0E45BBB
:1005D000FE4F6083895D880F0E94C304812F0E94B3
:1005E0001C050E94140580E01F9108950E94BD041F
:1005F0008AE18A95F1F780E090E0FC01E45BFE4F30
:100600001082019688309105C1F70895882321F062
:1006100080914B018F7703C080914B01806880935C
:100620004B0160914B0180E00E94DF02089580E061
:1006300064E00E94930200C080E064E00E948F02A8
:1006400008951F93182F662321F080914B01806439
:1006500003C080914B018F7B80934B0180914B01B4
:100660008F7D80934B0160914B0180E00E94DF02FF
:1006700080914B01877F80934B0180914B018B7F51
:1006800080934B0180914B018D7F80934B01809132
:100690004B018E7F80934B0117FF05C080914B016A
:1006A000886080934B0116FF05C080914B018460E8
:1006B00080934B0115FF05C080914B0182608093B0
:1006C0004B0114FF05C080914B01816080934B0169
:1006D00060914B0180E00E94DF020E94170380912D
:1006E0004B01877F80934B0180914B018B7F8093DF
:1006F0004B0180914B018D7F80934B0180914B0189
:100700008E7F80934B0113FF05C080914B01886061
:1007100080934B0112FF05C080914B018460809350
:100720004B0111FF05C080914B01826080934B010A
:1007300010FF05C080914B01816080934B01609157
:100740004B0180E00E94DF020E94170380914B0161
:10075000816080934B0180914B01826080934B01BB
:1007600080914B01846080934B0180914B018860A4
:1007700080934B0160914B0180E00E94DF021F914A
:1007800008951F93882321F080914B01806403C05A
:1007900080914B018F7B80934B0180914B01806254
:1007A00080934B0160914B0180E00E94DF0280E06A
:1007B00064E00E94930200C080E060E00E941A02A0
:1007C000182F80E064E00E948F0200C080E064E0A7
:1007D0000E94930200C080E060E00E941A0212951D
:1007E000107F8F70182B80E064E00E948F02812FB1
:1007F0001F91089580E00E94C10387FDFBCF84E034
:1008000090E00197F1F780E00E94C10308950E94F3
:10081000FA0390E008951F93182F0E94FA03812F86
:1008200061E00E9421031F9108951F93182F0E94D9
:10083000FA03812F60E00E9421031F91089582E056
:100840000E941504089581E00E9415040895FF9206
:100850000F931F93F82E0E94F60210924B016091A5
:100860004B0180E00E94DF0280E09DE70197F1F7F5
:1008700080914B01826080934B0180914B0181609C
:1008800080934B0160914B0180E00E94DF020E9447
:10089000170380E097E20197F1F70E94170300E841
:1008A00010E0C8010197F1F70E941703C8010197F2
:1008B000F1F780914B018E7F80934B0160914B014A
:1008C00080E00E94DF020E941703C8010197F1F740
:1008D00088E20E94150488E00E9415040E94230407
:1008E00086E00E9415048F2D0E9415041F910F9120
:1008F000FF900895662311F4805801C080540E942F
:10090000150408951F93182F0E94FA031A3049F412
:10091000803410F080E001C080E480580E9415040B
:1009200010C0803111F480EC03C0803521F480E8E0
:1009300060E00E9421030E94FA03812F61E00E947F
:1009400021031F910895CF93DF93EC0102C00E9411
:100950008204FE01219684918823C9F7DF91CF910B
:100960000895CF93DF93EC0102C00E948204899125
:100970008823D9F7DF91CF9108951092B90088E8C4
:100980008093B8000895982F84EA8093BC008091EA
:10099000BC0087FFFCCF8091B900887F883021F0B0
:1009A000803111F081E008959093BB0084E880933A
:1009B000BC008091BC0087FFFCCF9091B900987F6C
:1009C000983111F480E0089580E0903409F081E0DE
:1009D0000895982F44EA34E824E94093BC008091BC
:1009E000BC0087FFFCCF8091B900887F883011F070
:1009F000803199F79093BB003093BC008091BC008C
:100A000087FFFCCF8091B900887F803211F0883554
:100A100039F42093BC008091BC0084FDFCCFDDCF75
:100A200008950E94C304089584E98093BC008091D6
:100A3000BC0084FDFCCF08958093BB0084E88093C4
:100A4000BC008091BC0087FFFCCF8091B90090E092
:100A5000887F883209F091E0892F089584EC809393
:100A6000BC008091BC0087FFFCCF8091BB00089543
:100A700084E88093BC008091BC0087FFFCCF80910C
:100A8000BB00089588E88093B8000895982F1092CD
:100A9000BC0084EA8093BC008091BC0087FFFCCF3F
:100AA0008091B900887F883011F081E0089590939B
:100AB000BB0084E88093BC008091BC0087FFFCCF22
:100AC0009091B900987F983111F480E0089580E00A
:100AD000903409F081E008958093BB0084E880930E
:100AE000BC008091BC0087FFFCCF8091B90090E0F2
:100AF000887F883209F091E0892F089584EC8093F3
:100B0000BC008091BC0087FFFCCF8091BB000895A2
:100B100084E88093BC008091BC0087FFFCCF80916B
:100B2000BB000895EF92FF920F931F93CF93DF9333
:100B30007B018A010E9446058823A1F4C0E0D0E031
:100B400009C0F701EC0FFD1F80810E946C0588230E
:100B500049F42196C017D107A0F384E98093BC0023
:100B600080E001C081E0DF91CF911F910F91FF9054
:100B7000EF9008950F931F93CF93DF93EB018A01BA
:100B800081600E944605882311F081E029C020E0A1
:100B900030E0A8014150504094EC0EC09093BC004E
:100BA0008091BC0087FFFCCF8091BB00FE01E20F6B
:100BB000F31F80832F5F3F4F2417350778F384E8B6
:100BC0008093BC008091BC0087FFFCCF8091BB006C
:100BD000C00FD11F2197888384E98093BC0080E0F7
:100BE000DF91CF911F910F910895CF92DF92EF92F5
:100BF000FF921F93CF93DF93162F6A0179010E9412
:100C000046058823B9F4812F0E946C05C0E0D0E02E
:100C100009C0F601EC0FFD1F80810E946C0588233E
:100C200049F42196CE15DF05A0F384E98093BC003A
:100C300080E001C081E0DF91CF911F91FF90EF90A4
:100C4000DF90CF900895EF92FF920F931F93CF9371
:100C5000DF93182F062FEA0179010E9446058823A9
:100C600099F5802F0E946C05812F81600E944605B6
:100C7000882351F520E030E0A7014150504094EC2A
:100C80000EC09093BC008091BC0087FFFCCF809188
:100C9000BB00FE01E20FF31F80832F5F3F4F24173D
:100CA000350778F384E88093BC008091BC0087FF0F
:100CB000FCCF8091BB00CE0DDF1D2197888384E996
:100CC0008093BC0080E001C081E0DF91CF911F9153
:100CD0000F91FF90EF90089584E98093BC000895F0
:100CE000A1E21A2EAA1BBB1BFD010DC0AA1FBB1F30
:100CF000EE1FFF1FA217B307E407F50720F0A21BA2
:100D0000B30BE40BF50B661F771F881F991F1A940E
:100D100069F760957095809590959B01AC01BD0138
:080D2000CF010895F894FFCF04
:060D2800503D00543D00A7
:00000001FF
