:100000000C9434000C9449000C9449000C94490061
:100010000C9449000C9449000C9449000C9449003C
:100020000C9449000C9449000C9449000C9449002C
:100030000C9449000C9449000C9449000C9449001C
:100040000C9449000C9449000C9449000C9449000C
:100050000C9449000C9449000C9449000C944900FC
:100060000C9449000C94490011241FBECFEFD8E036
:10007000DEBFCDBF11E0A0E0B1E0E8EBF3E002C0ED
:1000800005900D92A430B107D9F70E9492000C940C
:10009000DA010C940000299A0895299808955F9A2E
:1000A00008955F9808955E9A08955E980895299A34
:1000B0005F9A89E995E1FC013197F1F75F98E6E6EF
:1000C000F5E03197F1F75E980197F1F75E9A8CE2CF
:1000D00091E024E131E0F9013197F1F70197D9F787
:1000E00029980895ECE7F0E0808185608083EAE755
:1000F000F0E080818068808380818360808380815C
:100100008062808380818064808308952CEC3AE053
:1001100003C0F9013197F1F701974FEF8F3F940733
:10012000C1F70895CF93DF93219A8AB1806C8AB981
:100130000E947200CCECDAE00E9457000E94370166
:10014000209178003091790064EF71E00E94D30033
:10015000AC01429FC001439F900D529F900D11240E
:1001600064E670E00E94BF00CB0103C0FE0131973E
:10017000F1F701975FEF8F3F9507F1F2F7CFAA1BD9
:10018000BB1B51E107C0AA1FBB1FA617B70710F082
:10019000A61BB70B881F991F5A95A9F780959095B4
:1001A000BC01CD01089597FB092E07260AD077FDE3
:1001B00004D0E5DF06D000201AF4709561957F4FDA
:1001C0000895F6F7909581959F4F0895A0E0B0E0CF
:1001D000ECEEF0E00C948901EC01A880B980CA80B3
:1001E000DB80A114B104C104D10441F484E2A82E3F
:1001F00089EDB82E8BE5C82E87E0D82EC601B50153
:100200002DE133EF41E050E00E94660127EA31E43E
:1002100040E050E00E9447017B018C01C601B5011E
:100220002DE133EF41E050E00E946601CA01B901BF
:100230002CEE34EF4FEF5FEF0E9447016E0D7F1DF4
:10024000801F911F97FF04C061507040804090480C
:10025000688379838A839B839B013F77C901CDB7EC
:10026000DEB7EAE00C94A5010E94E600089580E064
:1002700091E00E94E6000895A0E0B0E080930001C4
:1002800090930101A0930201B09303010895629F2E
:10029000D001739FF001829FE00DF11D649FE00D7E
:1002A000F11D929FF00D839FF00D749FF00D659FDF
:1002B000F00D9927729FB00DE11DF91F639FB00DDE
:1002C000E11DF91FBD01CF011124089597FB092EEF
:1002D00005260ED057FD04D04BD00AD0001C38F4B0
:1002E00050954095309521953F4F4F4F5F4F089562
:1002F000F6F790958095709561957F4F8F4F9F4F42
:1003000008952F923F924F925F926F927F928F92B9
:100310009F92AF92BF92CF92DF92EF92FF920F9394
:100320001F93CF93DF93CDB7DEB7CA1BDB0B0FB69E
:10033000F894DEBF0FBECDBF09942A88398848885B
:100340005F846E847D848C849B84AA84B984C884F1
:10035000DF80EE80FD800C811B81AA81B981CE0FE8
:10036000D11D0FB6F894DEBF0FBECDBFED010895CD
:10037000A1E21A2EAA1BBB1BFD010DC0AA1FBB1FA9
:10038000EE1FFF1FA217B307E407F50720F0A21B1B
:10039000B30BE40BF50B661F771F881F991F1A9488
:1003A00069F760957095809590959B01AC01BD01B2
:0803B000CF010895F894FFCF7E
:0403B8000100000040
:00000001FF
