:1000000012C01FC01EC01DC01DC01BC01AC019C019
:1000100018C017C016C015C014C013C012C011C03C
:1000200010C00FC00EC011241FBECFEDCDBF10E019
:10003000A0E6B0E001C01D92A536B107E1F7A7D058
:10004000E7C0DECF1F920F920FB60F9211242F93AD
:100050003F935F936F937F938F939F93AF93BF93E0
:100060008091600088BB809161009091620086BFA2
:100070008091630090916400853691052CF4809105
:1000800063009091640008C0209163003091640087
:1000900088EC90E0821B930B909362008093610048
:1000A000809161009091620061EE70E078D064E62A
:1000B00070E087D0625E7F4F709362006093610052
:1000C0008091630090916400019690936400809306
:1000D00063008091630090916400883C910521F455
:1000E000109264001092630080916300909164000C
:1000F0006AE070E066D0892B31F48091600092E074
:10010000892780936000809163009091640064E689
:1001100070E057D0892B31F48091600098E08927F6
:100120008093600080916300909164000A9724F4AA
:1001300080916000816003C0809160008E7F809319
:100140006000BF91AF919F918F917F916F915F916F
:100150003F912F910F900FBE0F901F9018958EB565
:1001600088608EBD80E593EC9BBD8ABD8EB58160B5
:100170008EBD89B7806489BF089580B7806880BFCD
:1001800080B78B6080BF83B7816083BF0895B89AC2
:10019000B99ABA9ABB9AE3DFF0DF7894FFCF55277C
:1001A000002480FF02C0060E571F660F771F6115DF
:1001B000710521F096958795009799F7952F802DD9
:1001C000089597FB092E07260AD077FD04D00CD09E
:1001D00006D000201AF4709561957F4F0895F6F7C8
:1001E000909581959F4F0895AA1BBB1B51E107C0B5
:1001F000AA1FBB1FA617B70710F0A61BB70B881FB7
:10020000991F5A95A9F780959095BC01CD01089545
:04021000F894FFCF90
:00000001FF
