:100000000C9434000C943E000C943E000C943E0082
:100010000C943E000C943E000C943E000C943E0068
:100020000C943E000C943E000C943E000C943E0058
:100030000C943E000C943E000C943E000C943E0048
:100040000C943E000C943E000C943E000C943E0038
:100050000C943E000C943E000C943E000C943E0028
:100060000C943E000C943E0011241FBECFEFD8E04C
:10007000DEBFCDBF0E9486010C94F2010C940000FB
:1000800083E290E09093C5008093C400E1ECF0E03F
:10009000808188608083E2ECF0E0808184608083EE
:1000A0000895982F8091C00085FFFCCF9093C600E3
:1000B00008958091C00085FFFCCF8AE08093C60040
:1000C0008091C00085FFFCCF8DE08093C60008952D
:1000D0008091C00085FFFCCF8CE28093C6008091A8
:1000E000C00085FFFCCF80E28093C60008956F9228
:1000F0007F928F929F92AF92BF92CF92DF92EF92B8
:10010000FF920F931F93CF93DF935B016C01E12C60
:100110008AECF82E8AE9082F8BE3182FC0E0D0E094
:100120008091C00085FFFCCFB501C601A8019701F1
:100130000E94D001205D2093C600C801B7012AE0CB
:1001400030E040E050E00E94D001922E832E742EC9
:10015000652E2196CA30D10589F0B501C601A801E6
:1001600097010E94D0015B016C01292D382D472D8C
:10017000562DC901DA017C018D01D2CFDF91CF91DB
:100180001F910F91FF90EF90DF90CF90BF90AF90B5
:100190009F908F907F906F900895AC0127E030E0A2
:1001A00070E361E3CA01022E02C0959587950A9417
:1001B000E2F780FF07C08091C00085FFFCCF60930D
:1001C000C60006C08091C00085FFFCCF7093C600BA
:1001D000215030408FEF2F3F380721F70895982F97
:1001E0008BB1806E8BB9289A913011F45D980BC059
:1001F000923011F45E9807C0933011F45F9803C0F9
:10020000943009F428988CEC9AE00197F1F786B1C4
:10021000282F30E095E0369527959A95E1F72170E3
:100220003070349B02C02E5F3F4F339B02C02C5F67
:100230003F4F329B02C0285F3F4F319B02C0205F7F
:100240003F4F309B02C0205E3F4F1A9B02C0205C94
:100250003F4F199B02C020583F4FC9010895EF92AC
:10026000FF920F931F9384E00E94EF007C01002710
:10027000F7FC0095102F102F0F2DFE2CEE2483E09D
:100280000E94EF00AA2797FDA095BA2FE80EF91E4D
:100290000A1F1B1F102F0F2DFE2CEE2482E00E9440
:1002A000EF00AA2797FDA095BA2FE80EF91E0A1FA6
:1002B0001B1F102F0F2DFE2CEE2481E00E94EF005B
:1002C0009C01442737FD4095542F2E0D3F1D401FA4
:1002D000511FB901CA011F910F91FF90EF9008952E
:1002E000EF92FF920F931F930E942F017B018C01CD
:1002F0000E942F01E616F70608071907A9F7B701AC
:10030000C8011F910F91FF90EF900895AF92BF9297
:10031000CF92DF92EF92FF920F931F93CF93DF93D1
:100320008AB1806E8AB9209A509A83E290E09093C5
:10033000C5008093C4008091C10088608093C10093
:100340008091C20084608093C200C4E1D1E00E9429
:1003500070015B016C016E157F0580079107B9F094
:10036000DC01CB018E199F09A00BB10B7C018D0123
:10037000C601B5010E9477000E946800C801B7015C
:100380000E9477000E945900589A8601750184EFF7
:1003900091E0FE013197F1F70197D9F75898D7CF3F
:1003A000A1E21A2EAA1BBB1BFD010DC0AA1FBB1F79
:1003B000EE1FFF1FA217B307E407F50720F0A21BEB
:1003C000B30BE40BF50B661F771F881F991F1A9458
:1003D00069F760957095809590959B01AC01BD0182
:0803E000CF010895F894FFCF4E
:00000001FF
