:100000000C9434000C943E000C943E000C943E0082
:100010000C943E000C943E000C943E000C943E0068
:100020000C943E000C943E000C943E000C943E0058
:100030000C943E000C943E000C943E000C943E0048
:100040000C943E000C943E000C943E000C943E0038
:100050000C943E000C943E000C943E000C943E0028
:100060000C943E000C943E0011241FBECFEFD8E04C
:10007000DEBFCDBF0E94CD000C9440010C94000067
:100080008CE090E09093C5008093C400E1ECF0E038
:10009000808188608083E2ECF0E0808184608083EE
:1000A0000895982F8091C00085FFFCCF9093C600E3
:1000B00008958091C00085FFFCCF8AE08093C60040
:1000C0008091C00085FFFCCF8DE08093C60008952D
:1000D0008091C00085FFFCCF8CE28093C6008091A8
:1000E000C00085FFFCCF80E28093C60008956F9228
:1000F0007F928F929F92AF92BF92CF92DF92EF92B8
:10010000FF920F931F93CF93DF935B016C01E12C60
:1001100081EEF82E85EF082F85E0182FC0E0D0E0A3
:100120008091C00085FFFCCFB501C601A8019701F1
:100130000E940301205D2093C600C801B7012AE098
:1001400030E040E050E00E940301922E832E742E96
:10015000652E2196C930D10589F0B501C601A801E7
:1001600097010E9403015B016C01292D382D472D59
:10017000562DC901DA017C018D01D2CFDF91CF91DB
:100180001F910F91FF90EF90DF90CF90BF90AF90B5
:100190009F908F907F906F900895CF93DF938CE026
:1001A00090E09093C5008093C4008091C100886066
:1001B0008093C1008091C20084608093C20021E4DA
:1001C00030E0C9E1D0E008C08091C00085FFFCCFDD
:1001D0002093C6002F5F3F4F2B353105ACF30E94B3
:1001E00059006BED79EB8AE990E00E9477000E945C
:1001F000590080E197E2FE013197F1F70197D9F7B5
:1002000021E430E0E9CF97FB092E05260ED057FDFB
:1002100004D014D00AD0001C38F450954095309585
:1002200021953F4F4F4F5F4F0895F6F7909580957A
:10023000709561957F4F8F4F9F4F0895A1E21A2EC1
:10024000AA1BBB1BFD010DC0AA1FBB1FEE1FFF1F7A
:10025000A217B307E407F50720F0A21BB30BE40BCA
:10026000F50B661F771F881F991F1A9469F7609511
:100270007095809590959B01AC01BD01CF010895CB
:04028000F894FFCF20
:00000001FF
