:100000000C9434000C943E000C943E000C943E0082
:100010000C943E000C943E000C943E000C943E0068
:100020000C943E000C943E000C943E000C943E0058
:100030000C943E000C943E000C943E000C943E0048
:100040000C943E000C943E000C943E000C943E0038
:100050000C943E000C943E000C943E000C943E0028
:100060000C943E000C943E0011241FBECFEFD8E04C
:10007000DEBFCDBF0E94AC000C940A010C940000BE
:10008000259A239A229A2A9A8CB580648CBD8CB5C5
:1000900080618CBD8CB581608CBD08958EBD0DB422
:1000A00007FEFDCF08952A988EBD0DB407FEFDCF43
:1000B0006EBD0DB407FEFDCF2A9A0895EF92FF9210
:1000C0000F931F93CF93DF937B018C01C1E0D0E0AE
:1000D000B701C8012AE030E040E050E00E94CD00C6
:1000E000C430D10519F0C730D10509F4606F8C2FE9
:1000F0000E9453002196C930D10559F0B701C801BB
:100100002AE030E040E050E00E94CD0079018A0111
:10011000DFCFDF91CF911F910F91FF90EF90089566
:100120008CE061E00E94530089E06FEF0E94530071
:100130008AE06FE00E9453008BE067E00E9453006A
:1001400008951F9311E0812F6FE00E9453001F5FFD
:100150001930C9F71F910895AF92BF92CF92DF92E5
:10016000EF92FF920F931F93CF93DF930E94400073
:10017000C0E0D0E90E949000860175010894E11C5E
:10018000F11C011D111DC601B5010E945E00CE01CA
:100190000197F1F757016801EDCF97FB092E05266E
:1001A0000ED057FD04D014D00AD0001C38F450955E
:1001B0004095309521953F4F4F4F5F4F0895F6F78B
:1001C00090958095709561957F4F8F4F9F4F0895C3
:1001D000A1E21A2EAA1BBB1BFD010DC0AA1FBB1F4B
:1001E000EE1FFF1FA217B307E407F50720F0A21BBD
:1001F000B30BE40BF50B661F771F881F991F1A942A
:1002000069F760957095809590959B01AC01BD0153
:08021000CF010895F894FFCF1F
:00000001FF
