:1000000012C022C021C020C01FC01EC01DC01CC005
:100010001BC01AC019C0D0C017C016C015C014C06C
:1000200013C012C011C011241FBECFEDCDBF10E010
:10003000A0E6B0E0E2E9F2E002C005900D92A2363F
:10004000B107D9F7DCD023C1DBCFBB9A8FB580686D
:100050008FBD8EB580618EBD8EB581608EBD80E115
:1000600097E295BD84BD88E893E19BBD8ABD089564
:100070009C018AB59BB58217930710F42AB53BB54E
:100080008AB59BB5821B930B9BBD8ABD0895AC01BD
:100090008AB59BB524B535B5840F951F2817390748
:1000A00030F444B555B58AB59BB5481B590B8AB594
:1000B0009BB5840F951F9BBD8ABD0895B29931C031
:1000C000B19911C08AB59BB58436910518F024E624
:1000D00030E002C02AB53BB58AB59BB5821B930BB5
:1000E0009BBD8ABD18C08AB59BB524B535B58C5962
:1000F0009F4F2817390718F024E630E006C024B5D2
:1001000035B58AB59BB5281B390B8AB59BB5280F29
:10011000391F3BBD2ABD80EA9FE00197F1F7B29BF2
:10012000FECF0895B29947C0B1991AC0B09B11C0D3
:100130008AB59BB58436910518F024E630E002C0FC
:100140002AB53BB58AB59BB5821B930B9BBD8ABD77
:100150002CC08091600090916100845F914021C02B
:10016000B09B19C08AB59BB524B535B58C599F4F46
:100170002817390718F024E630E006C024B535B555
:100180008AB59BB5281B390B8AB59BB5280F391F3B
:100190003BBD2ABD0AC080916000909161008C50E7
:1001A0009E4F909361008093600080EA9FE00197EA
:1001B000F1F7B29BFECF08951F920F920FB60F92E8
:1001C00011242F933F934F935F936F937F938F935C
:1001D0009F93AF93BF93EF93FF93A4DFFF91EF91B2
:1001E000BF91AF919F918F917F916F915F914F914F
:1001F0003F912F910F900FBE0F901F90189525DF04
:1002000080E28BBF8ABF8EE080BD789428E833E11E
:1002100068EC70E005C0CB010197F1F72150304048
:1002200021153105C1F740916000509161008AB5F8
:100230009BB524B535B5840F951F2817390730F4C1
:1002400044B555B58AB59BB5481B590B8AB59BB5C6
:10025000480F591F5BBD4ABD88E893E1FB01319708
:10026000F1F70197D9F720916000309161008AB5CC
:100270009BB58217930710F42AB53BB58AB59BB599
:10028000821B930B9BBD8ABD28E833E1C4CFF89451
:02029000FFCF9E
:02029200F40175
:00000001FF
