:100000000C9434000C9449000C9449000C94490061
:100010000C9449000C9449000C9449000C9449003C
:100020000C9449000C9449000C9449000C9449002C
:100030000C9449000C9449000C9449000C9449001C
:100040000C9449000C9449000C9499000C944900BC
:100050000C9449000C9449000C9449000C944900FC
:100060000C9449000C94490011241FBECFEFD8E036
:10007000DEBFCDBF11E0A0E0B1E0E2E0F5E002C0FC
:1000800005900D92A230B107D9F70E94FD000C94A3
:100090007F020C9400008CE090E09093C500809368
:1000A000C400E1ECF0E08081886080838081806121
:1000B0008083808180688083E2ECF0E080818460CE
:1000C00080830895982F8091C00085FFFCCF909386
:1000D000C6000895EF92FF920F931F93CF93DF9383
:1000E0007C01C4E6D0E000E010E0C701BE010E9440
:1000F0005802CB01C0960E946200C701BE010E9457
:1001000058027C01CE016AE070E00E945802EB01C7
:100110000F5F1F4F0330110541F7DF91CF911F9102
:100120000F91FF90EF9008958AE090E00E946200A6
:1001300008951F920F920FB60F9211248F939F93E1
:1001400088EA91E60197F1F78091C600823729F09D
:100150008F3619F0863609F088E7809300019F9169
:100160008F910F900FBE0F901F901895DF93CF9334
:1001700000D0CDB7DEB788B1806388B981E9BE0110
:100180006F5F7F4F42E050E00E94A201398120E082
:100190008A81280F311D85E0359527958A95E1F7ED
:1001A000C9010F900F90CF91DF9108950F931F9386
:1001B0000E94B6008C0168E070E00E945802CB01FA
:1001C0000E946A00C80168E070E00E9458028C0139
:1001D0008EE290E00E9462008DE790E09C01029F19
:1001E000C001039F900D129F900D11240E946A0080
:1001F0000E9494001F910F9108951F93CF93DF9356
:1002000080E593EC0197F1F70E944B000E942A01D0
:1002100078948BE790E00E946A000E949400C4ECFE
:10022000D9E018E7CE010197F1F7809100018237FC
:1002300019F40E94D6000BC0809100018F3611F492
:100240005A9A05C080910001863609F45A98109395
:100250000001E8CF88E48093B8000895982F1092A9
:10026000BC0084EA8093BC008091BC0087FFFCCF77
:100270008091B900887F883011F081E008959093D3
:10028000BB0084E88093BC008091BC0087FFFCCF5A
:100290009091B900987F983111F480E0089580E042
:1002A000903409F081E008958093BB0084E8809346
:1002B000BC008091BC0087FFFCCF8091B90090E02A
:1002C000887F883209F091E0892F089584EC80932B
:1002D000BC008091BC0087FFFCCF8091BB000895DB
:1002E00084E88093BC008091BC0087FFFCCF8091A4
:1002F000BB000895EF92FF920F931F93CF93DF936C
:100300007B018A010E942E018823A1F4C0E0D0E085
:1003100009C0F701EC0FFD1F80810E945401882362
:1003200049F42196C017D107A0F384E98093BC005B
:1003300080E001C081E0DF91CF911F910F91FF908C
:10034000EF9008950F931F93CF93DF93EB018A01F2
:1003500081600E942E01882311F081E029C020E0F5
:1003600030E0A8014150504094EC0EC09093BC0086
:100370008091BC0087FFFCCF8091BB00FE01E20FA3
:10038000F31F80832F5F3F4F2417350778F384E8EE
:100390008093BC008091BC0087FFFCCF8091BB00A4
:1003A000C00FD11F2197888384E98093BC0080E02F
:1003B000DF91CF911F910F910895CF92DF92EF922D
:1003C000FF921F93CF93DF93162F6A0179010E944A
:1003D0002E018823B9F4812F0E945401C0E0D0E09F
:1003E00009C0F601EC0FFD1F80810E945401882393
:1003F00049F42196CE15DF05A0F384E98093BC0073
:1004000080E001C081E0DF91CF911F91FF90EF90DC
:10041000DF90CF900895EF92FF920F931F93CF93A9
:10042000DF93182F062FEA0179010E942E018823FD
:1004300099F5802F0E945401812F81600E942E0126
:10044000882351F520E030E0A7014150504094EC62
:100450000EC09093BC008091BC0087FFFCCF8091C0
:10046000BB00FE01E20FF31F80832F5F3F4F241775
:10047000350778F384E88093BC008091BC0087FF47
:10048000FCCF8091BB00CE0DDF1D2197888384E9CE
:100490008093BC0080E001C081E0DF91CF911F918B
:1004A0000F91FF90EF90089584E98093BC00089528
:1004B00097FB092E07260AD077FD04D00CD006D072
:1004C00000201AF4709561957F4F0895F6F7909586
:1004D00081959F4F0895AA1BBB1B51E107C0AA1F1E
:1004E000BB1FA617B70710F0A61BB70B881F991FD5
:1004F0005A95A9F780959095BC01CD010895F8947F
:02050000FFCF2B
:020502003F00B8
:00000001FF
