:100000000C9434000C9446000C9446000C9446006A
:100010000C9446000C9446000C9446000C94460048
:100020000C9446000C9446000C9446000C94460038
:100030000C9446000C9446000C9446000C94460028
:100040000C9446000C9446000C9446000C94460018
:100050000C9446000C9446000C9446000C94460008
:100060000C9446000C94460011241FBECFEFD8E03C
:10007000DEBFCDBF11E0A0E0B1E001C01D92AE3007
:10008000B107E1F70E9474020C94A9020C940000DD
:1000900087E490E09093C5008093C400E1ECF0E029
:1000A000808188608083E2ECF0E0808184608083DE
:1000B0000895982F8091C00085FFFCCF9093C600D3
:1000C0000895FC0107C08091C00085FFFCCF3196E8
:1000D0009093C60090819923B1F708958091C00054
:1000E00085FFFCCF8AE08093C6008091C00085FF29
:1000F000FCCF8DE08093C60008958091C00085FFFD
:10010000FCCF8CE28093C6008091C00085FFFCCFBD
:1001100080E28093C60008956F927F928F929F92A3
:10012000AF92BF92CF92DF92EF92FF920F931F9305
:10013000CF93DF935B016C01E12C8AECF82E8AE906
:10014000082F8BE3182FC0E0D0E08091C00085FF1E
:10015000FCCFB501C601A80197010E948702205D6E
:100160002093C600C801B7012AE030E040E050E02B
:100170000E948702922E832E742E652E2196CA30FD
:10018000D10589F0B501C601A80197010E94870237
:100190005B016C01292D382D472D562DC901DA013F
:1001A0007C018D01D2CFDF91CF911F910F91FF90F4
:1001B000EF90DF90CF90BF90AF909F908F907F9007
:1001C0006F900895AC0127E030E070E361E3CA016D
:1001D000022E02C0959587950A94E2F780FF07C02A
:1001E0008091C00085FFFCCF6093C60006C080915F
:1001F000C00085FFFCCF7093C600215030408FEFC8
:100200002F3F380721F708950E946E0091E48091F6
:10021000C00085FFFCCF9093C6009F5F9B35B9F768
:100220000E946E00089583B180930D0186B1809382
:10023000000189B180930A01089580910A0180FF2D
:1002400002C090E801C090E080910A0182FD9064B4
:1002500080910A0183FD906280910A0184FD906182
:1002600080910A0185FD986080910A0186FD946065
:1002700080910A0187FD926080910D0180FD91605F
:10028000903811F481E30895903411F482E30895D5
:10029000903211F483E30895903111F484E30895CA
:1002A000983011F485E30895943011F486E30895AD
:1002B000923011F487E30895913011F08FE308959F
:1002C00088E308958091000185FF03C020E830E0B5
:1002D00002C020E030E08091000184FD2064809124
:1002E000000183FD20628091000182FD20618091E8
:1002F000000181FD28608091000180FD24608091D3
:100300000D0182FD22602830310511F489E3089542
:100310002115310511F488E308952E31310511F4CA
:1003200087E308952034310511F486E308952834D5
:10033000310511F485E308952839310511F484E37A
:1003400008952C30310511F483E3089524323105EA
:1003500011F482E308952E39310511F481E30895F3
:100360002230310511F08FE3089580E308950F9353
:100370001F93CF93DF93182FC8EED3E083B1809300
:100380000D0186B18093000189B180930A010E941A
:100390001D01082F8117E9F50E9462018F33C9F111
:1003A000113329F40E946201809302010EC01233BE
:1003B00029F40E9462018093030107C0133329F4DA
:1003C0000E9462018093040107C0043329F40E9453
:1003D0006201809305011BC0053329F40E9462016C
:1003E0008093060114C0063329F40E9462018093B1
:1003F00007010DC0073329F40E94620180930801B0
:1004000006C0083321F40E9462018093090181E053
:1004100004C0219709F0B2CF80E0DF91CF911F9106
:100420000F9108950F931F9380E2809302018093B0
:10043000030180930401809305018093060180935A
:100440000701809308018093090101E30BC0802F0D
:100450000E94B701882319F41F5F1A30C1F70F5F9C
:10046000093311F010E0F3CF20E030E09EE2F90113
:10047000EE5FFE4FE0818091C00085FFFCCFE093EE
:10048000C600213031F48091C00085FFFCCF9093ED
:10049000C6002F5F3F4F2430310549F78091C000DF
:1004A00085FFFCCF8CE28093C60020E030E09EE226
:1004B000F901EA5FFE4FE0818091C00085FFFCCF2B
:1004C000E093C600223031F48091C00085FFFCCF5C
:1004D0009093C6002F5F3F4F2430310549F70E94AB
:1004E0006E001F910F91089587E490E09093C500EE
:1004F0008093C4008091C10088608093C100809186
:10050000C20084608093C2000E941202FDCFA1E26B
:100510001A2EAA1BBB1BFD010DC0AA1FBB1FEE1F7D
:10052000FF1FA217B307E407F50720F0A21BB30BC8
:10053000E40BF50B661F771F881F991F1A9469F744
:1005400060957095809590959B01AC01BD01CF01A0
:060550000895F894FFCFAE
:00000001FF
