:1000000012C01FC01EC01DC01DC01BC01AC019C019
:1000100018C017C016C015C014C013C012C011C03C
:1000200010C00FC00EC011241FBECFEDCDBF10E019
:10003000A0E6B0E001C01D92A336B107E1F753D0AE
:100040007FC0DECF1F920F920FB60F9211245F93E5
:100050006F937F938F939F93AF93BF938091600033
:1000600088BBA89580916100909162000196909361
:100070006200809361008091610090916200883CF1
:10008000910521F41092620010926100809161004C
:100090009091620064E670E02CD0892B51F480913D
:1000A000600098E089278093600082B390E48927FC
:1000B00082BBBF91AF919F918F917F916F915F9123
:1000C0000F900FBE0F901F9018958EB588608EBD53
:1000D00080E593EC9BBD8ABD8EB581608EBD89B7EE
:1000E000806489BF089581B5866081BDEEDF789414
:1000F000FFCF97FB092E07260AD077FD04D00CD03E
:1001000006D000201AF4709561957F4F0895F6F798
:10011000909581959F4F0895AA1BBB1B51E107C085
:10012000AA1FBB1FA617B70710F0A61BB70B881F87
:10013000991F5A95A9F780959095BC01CD01089516
:04014000F894FFCF61
:00000001FF
